:1000000055C0000070C000006EC000006CC0000051
:100010006AC0000068C0000066C0000064C0000044
:1000200062C0000060C000005EC000005CC0000054
:100030005AC0000063C1000056C0000054C0000058
:1000400052C0000050C000004EC000004CC0000074
:100050004AC0000048C0000046C0000044C0000084
:1000600042C0000040C000003EC000003CC0000094
:100070003AC0000038C0000036C0000034C00000A4
:1000800032C0000030C000002EC000003402380230
:10009000540258026D02710286028A02C702C70228
:1000A000B102C702BB02C702AE02C70211241FBEC3
:1000B000CFEFD0E4DEBFCDBF11E0A0E0B1E0EAE3D6
:1000C000F6E000E00BBF02C007900D92A430B1072C
:1000D000D9F721E0A4E0B1E001C01D92AB30B20736
:1000E000E1F760D2A8C28CCFCF93DF93CDB7DEB754
:1000F00081E090E01ED00000DF91CF910895CF9372
:10010000DF93CDB7DEB784E690E086D088E390E059
:1001100010D086E090E00DD08FE090E00AD081E032
:1001200090E007D08AE090E077D00000DF91CF9197
:100130000895CF93DF931F92CDB7DEB789838BE20B
:1001400090E02BE230E0F90120812F7BFC0120833D
:1001500088E290E02981FC0120838BE290E02BE291
:1001600030E0F90120812068FC01208300008BE24F
:1001700090E02BE230E0F90120812F77FC01208311
:1001800082E090E049D000000F90DF91CF91089578
:10019000CF93DF931F92CDB7DEB789838BE290E0D8
:1001A0002BE230E0F90120812064FC01208388E209
:1001B00090E02981FC0120838BE290E02BE230E08B
:1001C000F90120812068FC01208300008BE290E08F
:1001D0002BE230E0F90120812F77FC01208381E0C0
:1001E00090E01AD000000F90DF91CF910895CF9347
:1001F000DF931F92CDB7DEB789838981813120F4E7
:100200008981815896DF03C08981815592DF000082
:100210000F90DF91CF910895CF93DF9300D000D05E
:1002200000D0CDB7DEB79E838D831A82198213C0AA
:100230001C821B8206C000008B819C8101969C83DE
:100240008B838B819C8187309340ACF389819A8129
:1002500001969A83898329813A818D819E8128170D
:10026000390734F3000026960FB6F894DEBF0FBEB0
:10027000CDBFDF91CF910895CF93DF93CDB7DEB798
:1002800081E890E02BE0FC01208388E890E02DE7F6
:1002900030E0FC01318320838FE690E022E0FC0116
:1002A000208384E890E0FC0111821082809100019B
:1002B00090910101A0910201B09103018093060188
:1002C00090930701A0930801B09309018FE590E096
:1002D0002FE530E0F90120812068FC012083000037
:1002E000DF91CF910895CF93DF93CDB7DEB781E053
:1002F000809304010000DF91CF9108951F920F9227
:1003000000905F000F92112400905B000F922F93DA
:100310003F934F935F936F937F938F939F93AF938D
:10032000BF93EF93FF93CF93DF93CDB7DEB7809169
:10033000060190910701A0910801B0910901019770
:10034000A109B1098093060190930701A0930801C8
:10035000B09309018091060190910701A0910801D5
:10036000B0910901892B8A2B8B2B89F4BCDF8091FA
:10037000000190910101A0910201B09103018093CD
:10038000060190930701A0930801B09309010000B2
:10039000DF91CF91FF91EF91BF91AF919F918F919D
:1003A0007F916F915F914F913F912F910F900092AC
:1003B0005B000F9000925F000F901F901895CF93F5
:1003C000DF9300D000D0CDB7DEB769837A838B830B
:1003D0009C8389819A81AB81BC8180930001909339
:1003E0000101A0930201B09303018091000190915B
:1003F0000101A0910201B091030180930601909345
:100400000701A0930801B093090100000F900F901D
:100410000F900F90DF91CF910895CF93DF9300D08D
:10042000CDB7DEB780E290E0FC01808181708983E6
:1004300080E290E0FC01808182708A8380910A01D1
:10044000882F90E0092E000CAA0BBB0B40E050E077
:1004500027E030E0841B950B2817390708F468C0A3
:100460008A5B9F4FFC01DEC081E080930A0161C07E
:100470008981882339F08A81882321F086E080935E
:100480000A0157C08A81882321F084E080930A0101
:1004900050C08981882321F082E080930A0149C0FD
:1004A00081E080930A0145C083E080930A0141C046
:1004B0008981882321F082E080930A013AC08981F2
:1004C000882339F08A81882321F086E080930A010D
:1004D00030C081E080930A012CC085E080930A013E
:1004E00028C08A81882321F084E080930A0121C0FA
:1004F0008981882339F08A81882321F086E08093DE
:100500000A0117C081E080930A0113C087E080933D
:100510000A010FC08981882319F48A81882321F078
:1005200086E080930A0105C081E080930A0101C042
:10053000000080910A01882F90E0092E000CAA0B80
:10054000BB0B40E050E027E030E0841B950B281700
:100550003907D8F0825B9F4FFC0164C010920501FF
:100560001BC0809105018930A0F4809105018F5F47
:10057000809305010EC080910501882361F0809170
:10058000050181508093050106C0000005C00000F0
:1005900003C0000001C0000000000F900F90DF9129
:1005A000CF910895CF93DF93CDB7DEB781E290E08E
:1005B000FC01108287E290E02FEFFC0120838AE2A9
:1005C00090E02FEFFC01208382E290E02FEFFC010E
:1005D000208388E290E0FC0110828BE290E0FC0135
:1005E000108268EE73E080E090E0E9DE45DE87DDB2
:1005F0007BDD1092050110920A0181E0F8DD0DDF2C
:1006000088E290E020910501FC01208380910501A2
:10061000805DBEDD0000809104018823E1F310922B
:100620000401EBCFEE0FFF1F0024001C0BBE079050
:0A063000F691E02D0994F894FFCF35
:04063A0001000000BB
:00000001FF
