S01700004763634170706C69636174696F6E312E737265635B
S113000035C1000052C1000050C100004EC10000C3
S11300104CC100004AC1000048C1000046C10000B4
S113002044C10000BCC1000040C100003EC100004A
S11300303CC100003AC1000038C1000036C10000D4
S113004034C1000032C1000030C100002EC10000E4
S11300502CC100002AC1000028C1000026C10000F4
S113006024C1000022C1000020C100001EC1000004
S11300701CC100001AC1000018C1000016C1000014
S113008014C1000012C1000010C1000000000000F3
S11300900000005F00000007000700147F147F14B5
S11300A0242A7F2A122313086462364955225000F9
S11300B005030000001C2241000041221C0014081A
S11300C03E081408083E08080050300000080808DC
S11300D00808006060000020100804023E514945F1
S11300E03E00427F400042615149462141454B3127
S11300F01814127F1027454545393C4A49493001B7
S1130100710905033649494936064949291E00360D
S1130110360000005636000008142241001414145E
S1130120141400412214080201510906324979418C
S11301303E7E1111117E7F494949363E414141229B
S11301407F4141221C7F494949417F090909013EF8
S11301504149497A7F0808087F00417F41002040D7
S1130160413F017F081422417F404040407F020C00
S1130170027F7F0408107F3E4141413E7F09090907
S1130180063E4151215E7F091929464649494931B4
S113019001017F01013F4040403F1F2040201F3F9D
S11301A04038403F6314081463070870080761511E
S11301B0494543007F4141000204081020004141A9
S11301C07F00040201020440404040400001020458
S11301D00020545454787F484444383844444420DC
S11301E0384444487F3854545418087E0901020C9A
S11301F05252523E7F0804047800447D400020405F
S1130200443D007F1028440000417F40007C0418D6
S113021004787C0804047838444444387C14141466
S113022008081414187C7C08040408485454542006
S1130230043F4440203C4040207C1C2040201C3C87
S11302404030403C44281028440C5050503C4464F6
S1130250544C44000836410000007F000000413641
S113026008001008081008000000000011241FBE38
S1130270CFEFD0E4DEBFCDBF1AE0A0E0B1E0E0E80C
S1130280FCE100E00BBF02C007900D92AE33B10752
S1130290D9F72CE0AEE3BAE001C01D92A338B2074F
S11302A0E1F70E94640A0C943E0EAACE20B121709C
S11302B08130910559F082309105A1F0892BB9F470
S11302C081E08093050181E090E00895222389F084
S11302D081E090910501911180E08093050182E015
S11302E090E00895211105C081E090E0089580E038
S11302F090E0089520B1322F327020B12470813003
S11303009105F1F08230910519F1009731F522231E
S113031041F081E08093820C10927F0C81E090E0A8
S11303200895332341F081E080937F0C1092820C76
S113033082E090E008951092820C10927F0C089550
S113034041E030E0211101C040E0842F932F089553
S1130350311105C080E090E0089580E090E00895B8
S11303608BE08093B1008DE78093B30082E08093AB
S113037070001092B20080915B0990915C09A09189
S11303805D09B0915E098093800A9093810AA093DD
S1130390820AB093830A8FB780688FBF08951F9233
S11303A00F920FB60F9211248F939F93AF93BF9325
S11303B08091800A9091810AA091820AB091830A67
S11303C00197A109B1098093800A9093810AA093AF
S11303D0820AB093830A892B8A2B8B2B99F481E0B0
S11303E08093840A80915B0990915C09A0915D09D6
S11303F0B0915E098093800A9093810AA093820A47
S1130400B093830ABF91AF919F918F910F900FBECC
S11304100F901F90189560935B0970935C0980930B
S11304205D0990935E096093800A7093810A8093BA
S1130430820A9093830A0895CF92DF92EF92FF92FB
S11304406B017C019B01AC0160917C0A70917D0A77
S113045080917E0A90917F0A0E947C0C882309F483
S113046056C020E030E0A901C701B6010E947C0C0F
S1130470811106C0E1E9F0E080818870808305C0C5
S1130480E1E9F0E080818360808328E539E344E793
S11304905FE3C701B6010E947C0C88233CF48FEF14
S11304A09FEF909399008093980025C020E034E258
S11304B044EF56E4C701B6010E94CB0D18162CF484
S11304C0109299001092980016C020E030E040E0AD
S11304D053E4C701B6010E94CF0D9B01AC0160E05B
S11304E074E284EF9AE40E94800C0E94E80C7093FA
S11304F09900609398001092950010929400C09215
S11305007C0AD0927D0AE0927E0AF0927F0AFF90E4
S1130510EF90DF90CF90089580E4809390008BE07B
S11305208093910060E070E0CB0186CF0895CF9274
S1130530DF92EF92FF926B017C019B01AC01609111
S1130540780A7091790A80917A0A90917B0A0E94C4
S11305507C0C882309F456C020E030E0A901C701CF
S1130560B6010E947C0C811106C0E1E8F0E08081B4
S11305708870808305C0E1E8F0E080818360808337
S113058028E539E344E75FE3C701B6010E947C0C28
S113059088233CF48FEF9FEF909389008093880029
S11305A025C020E034E244EF56E4C701B6010E94BE
S11305B0CB0D18162CF4109289001092880016C0E6
S11305C020E030E040E053E4C701B6010E94CF0DC3
S11305D09B01AC0160E074E284EF9AE40E94800C19
S11305E00E94E80C70938900609388001092850043
S11305F010928400C092780AD092790AE0927A0A22
S1130600F0927B0AFF90EF90DF90CF90089580E402
S1130610809380008BE08093810060E070E0CB01E8
S113062086CF0895BC01990F880B990B0E941B0D6E
S113063003CF089560E070E0CB01FECE0895BC01C5
S1130640990F880B990B0E941B0D71CF089560E0E0
S113065070E0CB016CCF08950E94680B60E070E0FD
S113066080E090E00E94600C61E070E087E699E031
S11306700E944E0C0C94650C08950E94680B60E077
S113068070E080E090E00E94600C61E070E08FE830
S113069099E00E944E0C0C94650C08950E94680B1E
S11306A060E070E080E090E00E94600C61E070E047
S11306B087EB99E00E944E0C0C94650C08950E94FF
S11306C0680B60E070E080E090E00E94600C61E004
S11306D070E089ED99E00E944E0C0C94650C08952D
S11306E00F931F93CF93DF93EC018230910569F14F
S11306F02CF4009769F0019711F162C384309105DD
S113070009F4DBC10CF436C1059709F47FC258C360
S11307101092770A1092760A1092750A1092740A4F
S11307201092730A1092720A81E08093810C1092E5
S1130730820C10927F0C7EDFC1E0D0E041C3809137
S11307400501882309F431C33BC31092040180914D
S11307500501882341F06EDFB2DF82E08093710AE5
S1130760C5E0D0E02DC38091820C882369F180918B
S1130770760A9091770A892BD1F41092770A109215
S1130780760A1092750A1092740A1092730A1092E3
S1130790720A8091810C811106C080910001815000
S11307A08093810C0DC381508093810C09C31092F6
S11307B0770A1092760A1092750A1092740A1092AF
S11307C0730A1092720AFCC280917F0C882329F16B
S11307D01092770A1092760A1092750A1092740A8F
S11307E01092730A1092720A8091810C8F5F809329
S11307F0810C90E0A0E0B0E0409100015091010133
S1130800609102017091030184179507A607B70749
S113081009F0D6C21092810CD3C26091810C262FAC
S113082030E0F901EE0FFF1FE95DFE4F4081518179
S11308300091760A1091770AD801AA0FBB1FA40F62
S1130840B51FE091740AF091750ACF01880F991FC2
S1130850ED91FC91E80FF91F80819181019651F48B
S11308600F5F1F4F1093770A0093760A1092750A50
S11308701092740A8091760A9091770AF901EA5FDE
S1130880FE4F208130E02817390741F581E080933D
S113089004011092770A1092760A1092750A109247
S11308A0740A1092730A1092720A860F8093810C54
S11308B090E0A0E0B0E0409100015091010160910E
S11308C002017091030184179507A607B70709F081
S11308D06FC21092810CC1E0D0E072C2611117C0E6
S11308E0880F991FFA01E80FF91F8091740A9091FB
S11308F0750A880F991F0190F081E02DE80FF91F08
S1130900808191818FDEA8DEC3E0D0E059C26130DE
S1130910B9F4880F991FFA01E80FF91F8091740A3E
S11309209091750A880F991F0190F081E02DE80FCE
S1130930F91F8081918176DEA0DEC3E0D0E040C261
S1130940623009F03DC2880F991FFA01E80FF91FC0
S11309508091740A9091750A880F991F0190F08113
S1130960E02DE80FF91F808191815CDE97DEC3E002
S1130970D0E026C280910501882341F05BDE9FDE32
S113098083E08093710AC5E0D0E01AC28091820CA2
S1130990882399F18091760A9091770A892BF1F452
S11309A01092770A1092760A1092750A1092740ABD
S11309B01092730A1092720A8091810C811108C0FE
S11309C08091000181508093810CC2E0D0E0F8C195
S11309D081508093810CC2E0D0E0F2C11092770A7A
S11309E01092760A1092750A1092740A1092730A81
S11309F01092720AC2E0D0E0E3C180917F0C882398
S1130A0039F11092770A1092760A1092750A1092B0
S1130A10740A1092730A1092720A8091810C8F5F8B
S1130A208093810C90E0A0E0B0E0409100015091EF
S1130A300101609102017091030184179507A607D3
S1130A40B70709F0B8C11092810CC2E0D0E0B8C178
S1130A502091720A3091730AE091810CF0E0EE0F5C
S1130A60FF1FEF5DFE4FA091760AB091770ACD018A
S1130A70880F991FA081B181A80FB91FE091740A52
S1130A80F091750ACF01880F991FED91FC91E80F41
S1130A90F91F808191812817390738F42F5F3F4F60
S1130AA03093730A2093720A8BC11092730A1092C6
S1130AB0720AC0DDC4E0D0E083C1809105018823BF
S1130AC041F0FDDDB7DD84E08093710AC5E0D0E03C
S1130AD077C18091820C882399F18091760A909154
S1130AE0770A892BF1F41092770A1092760A109201
S1130AF0750A1092740A1092730A1092720A809105
S1130B00810C811108C08091000181508093810C77
S1130B10C2E0D0E055C181508093810CC2E0D0E0A6
S1130B204FC11092770A1092760A1092750A1092A9
S1130B30740A1092730A1092720AC2E0D0E040C1A3
S1130B4080917F0C882339F11092770A1092760AEB
S1130B501092750A1092740A1092730A1092720A13
S1130B608091810C8F5F8093810C90E0A0E0B0E0D5
S1130B7040910001509101016091020170910301C3
S1130B8084179507A607B70709F018C11092810CBE
S1130B90C2E0D0E015C12091740A3091750A4091E9
S1130BA0720A5091730AE091810CF0E0EE0FFF1F7E
S1130BB0E55EFE4F8091760A9091770A880F991F1F
S1130BC00190F081E02DE80FF91FC901880F991FEA
S1130BD00190F081E02DE80FF91F80819181481781
S1130BE0590738F44F5F5F4F5093730A4093720A6A
S1130BF0E7C01092730A1092720A2F5F3F4F30932E
S1130C00750A2093740AC2E0D0E0DAC08091820CA5
S1130C108823A9F18091760A9091770A892BF1F4BF
S1130C201092770A1092760A1092750A1092740A3A
S1130C301092730A1092720A8091810C811106C07D
S1130C408091000181508093810C03C08150809376
S1130C50810C10920501C2E0D0E0B2C01092770A74
S1130C601092760A1092750A1092740A1092730AFE
S1130C701092720A10920501C2E0D0E0A1C08091E6
S1130C807F0C882341F11092770A1092760A109211
S1130C90750A1092740A1092730A1092720A809163
S1130CA0810C8F5F8093810C90E0A0E0B0E04091D4
S1130CB000015091010160910201709103018417B8
S1130CC09507A607B70711F41092810C109205013D
S1130CD0C2E0D0E075C080910501882311F0EFDCFB
S1130CE06FC08091710A833009F05BC08091810CE0
S1130CF081111CC08091760A9091770A880F991F00
S1130D00E0912701F0912801E80FF91F8091740AFE
S1130D109091750A880F991F0190F081E02DE80FDA
S1130D20F91F808191817EDC97DC3BC08130E1F446
S1130D308091760A9091770A880F991FE091290192
S1130D40F0912A01E80FF91F8091740A9091750AB5
S1130D50880F991F0190F081E02DE80FF91F808121
S1130D60918160DC8ADC1DC08230D9F48091760ADE
S1130D709091770A880F991FE0912B01F0912C0133
S1130D80E80FF91F8091740A9091750A880F991FD2
S1130D900190F081E02DE80FF91F8081918142DC00
S1130DA07DDCC091710AD0E00BC0C2E0D0E008C085
S1130DB0C1E0D0E005C0C2E0D0E002C0C2E0D0E0B3
S1130DC0CE01DF91CF911F910F9108950F931F933F
S1130DD0CF93DF93EC018230910569F12CF40097F5
S1130DE069F0019711F15DC38430910509F4DBC109
S1130DF00CF436C1059709F47FC253C31092700AEC
S1130E0010926F0A10926E0A10926D0A10926C0A78
S1130E1010926B0A81E08093800C1092820C1092E5
S1130E207F0C15DCC1E0D0E03CC380910501882330
S1130E3009F42CC336C31092040180910501882360
S1130E4041F005DC3CDC82E080936A0AC5E0D0E036
S1130E5028C38091820C882369F180916F0A909154
S1130E60700A892BD1F41092700A10926F0A1092B2
S1130E706E0A10926D0A10926C0A10926B0A80919D
S1130E80800C811106C08091000181508093800CF8
S1130E9008C381508093800C04C31092700A10928E
S1130EA06F0A10926E0A10926D0A10926C0A1092D8
S1130EB06B0AF7C280917F0C882329F11092700A83
S1130EC010926F0A10926E0A10926D0A10926C0AB8
S1130ED010926B0A8091800C8F5F8093800C90E05D
S1130EE0A0E0B0E040910001509101016091020145
S1130EF07091030184179507A607B70709F0D1C2BB
S1130F001092800CCEC26091800C262F30E0F90143
S1130F10EE0FFF1FEB5EFE4F4081518100916F0A7F
S1130F201091700AD801AA0FBB1FA40FB51FE0913E
S1130F306D0AF0916E0ACF01880F991FED91FC9113
S1130F40E80FF91F80819181019651F40F5F1F4FC3
S1130F501093700A00936F0A10926E0A10926D0A31
S1130F6080916F0A9091700AF901EA5FFE4F208127
S1130F7030E02817390741F581E08093040110928D
S1130F80700A10926F0A10926E0A10926D0A1092F3
S1130F906C0A10926B0A860F8093800C90E0A0E09C
S1130FA0B0E0409100015091010160910201709103
S1130FB0030184179507A607B70709F06AC21092C0
S1130FC0800CC1E0D0E06DC2611117C0880F991F79
S1130FD0FA01E80FF91F80916D0A90916E0A880F4B
S1130FE0991F0190F081E02DE80FF91F8081918114
S1130FF026DB32DBC3E0D0E054C26130B9F4880FA1
S1131000991FFA01E80FF91F80916D0A90916E0AF9
S1131010880F991F0190F081E02DE80FF91F80815E
S113102091810DDB2ADBC3E0D0E03BC2623009F0E2
S113103038C2880F991FFA01E80FF91F80916D0AD1
S113104090916E0A880F991F0190F081E02DE80FAE
S1131050F91F80819181F3DA21DBC3E0D0E021C262
S113106080910501882341F0F2DA29DB83E0809343
S11310706A0AC5E0D0E015C28091820C882399F1F8
S113108080916F0A9091700A892BF1F41092700A82
S113109010926F0A10926E0A10926D0A10926C0AE6
S11310A010926B0A8091800C811108C0809100011C
S11310B081508093800CC2E0D0E0F3C181508093D2
S11310C0800CC2E0D0E0EDC11092700A10926F0A59
S11310D010926E0A10926D0A10926C0A10926B0AAA
S11310E0C2E0D0E0DEC180917F0C882339F11092F8
S11310F0700A10926F0A10926E0A10926D0A109282
S11311006C0A10926B0A8091800C8F5F8093800C24
S113111090E0A0E0B0E040910001509101016091A5
S113112002017091030184179507A607B70709F018
S1131130B3C11092800CC2E0D0E0B3C120916B0A1D
S113114030916C0AE091800CF0E0EE0FFF1FE15F3C
S1131150FE4FA0916F0AB091700ACD01880F991FBC
S1131160A081B181A80FB91FE0916D0AF0916E0AB8
S1131170CF01880F991FED91FC91E80FF91F808131
S113118091812817390738F42F5F3F4F30936C0A49
S113119020936B0A86C110926C0A10926B0A57DA7C
S11311A0C4E0D0E07EC180910501882341F04FDA8C
S11311B086DA84E080936A0AC5E0D0E072C1809147
S11311C0820C882399F180916F0A9091700A892B7F
S11311D0F1F41092700A10926F0A10926E0A109233
S11311E06D0A10926C0A10926B0A8091800C811126
S11311F008C08091000181508093800CC2E0D0E04F
S113120050C181508093800CC2E0D0E04AC110925A
S1131210700A10926F0A10926E0A10926D0A109260
S11312206C0A10926B0AC2E0D0E03BC180917F0C43
S1131230882339F11092700A10926F0A10926E0A84
S113124010926D0A10926C0A10926B0A8091800CB5
S11312508F5F8093800C90E0A0E0B0E040910001AB
S11312605091010160910201709103018417950767
S1131270A607B70709F013C11092800CC2E0D0E0B2
S113128010C120916D0A30916E0A40916B0A509101
S11312906C0AE091800CF0E0EE0FFF1FE75FFE4F59
S11312A080916F0A9091700A880F991F0190F081C4
S11312B0E02DE80FF91FC901880F991F0190F081F3
S11312C0E02DE80FF91F808191814817590738F400
S11312D04F5F5F4F50936C0A40936B0AE2C01092C9
S11312E06C0A10926B0A2F5F3F4F30936E0A209363
S11312F06D0AC2E0D0E0D5C08091820C8823A9F1A8
S113130080916F0A9091700A892BF1F41092700AFF
S113131010926F0A10926E0A10926D0A10926C0A63
S113132010926B0A8091800C811106C0809100019B
S113133081508093800C03C081508093800C109264
S11313400501C2E0D0E0ADC01092700A10926F0A9D
S113135010926E0A10926D0A10926C0A10926B0A27
S113136010920501C2E0D0E09CC080917F0C8823DC
S113137041F11092700A10926F0A10926E0A109244
S11313806D0A10926C0A10926B0A8091800C8F5F28
S11313908093800C90E0A0E0B0E040910001509177
S11313A00101609102017091030184179507A6075A
S11313B0B70711F41092800C10920501C2E0D0E03E
S11313C070C080910501882311F079D96AC0C09159
S11313D06A0AC33009F058C08091800C81111BC087
S11313E080916F0A9091700A880F991FE0911501FE
S11313F0F0911601E80FF91F80916D0A90916E0A21
S1131400880F991F0190F081E02DE80FF91F80816A
S1131410918115D939C08130D9F480916F0A9091A6
S1131420700A880F991FE0911701F0911801E80FD5
S1131430F91F80916D0A90916E0A880F991F01908F
S1131440F081E02DE80FF91F80819181F8D81CC04C
S11314508230D1F480916F0A9091700A880F991F9D
S1131460E0911901F0911A01E80FF91F80916D0ABA
S113147090916E0A880F991F0190F081E02DE80F7A
S1131480F91F80819181DBD8D0E00BC0C2E0D0E0AD
S113149008C0C1E0D0E005C0C2E0D0E002C0C2E0B4
S11314A0D0E0CE01DF91CF911F910F91089510D11B
S11314B060E070E080E090E003D261E070E08DEFE6
S11314C099E0ECD102C20895CF93DF93CDB7DEB794
S11314D028970FB6F894DEBF0FBECDBF11B812B86F
S11314E08FEF84B915B887B918B880EF8AB91BB8DB
S11314F088E0EFE5F9E0DE01119601900D928A95FE
S1131500E1F7EFE5FAE0108281E090E0A0E0B0E0DE
S113151081839283A383B48385839683A783B087CF
S113152026E531E032872187E4E5FAE01082818301
S11315309283A383B48385839683A783B0872AE7A2
S113154031E032872187E9E4FAE0108281839283D3
S1131550A383B48385839683A783B08720E733E08E
S113156032872187EEE3FAE0108281839283A3839A
S1131570B48385839683A783B08786EE96E09287AB
S1131580818761E070E080E090E00E940B020E949D
S1131590B00168D08CDF0E948C0239D87E0189E0CA
S11315A0E80EF11CDE0111966D01F6010191119115
S11315B06F01D80115964D915D916D917C911897AD
S11315C011968D919D910D90BC91A02D48175907AE
S11315D06A077B0781F4F80180810184F285E02D9C
S11315E0082E000C990B0995D8018C93F8011582EB
S11315F0168217821086F80185819681A781B085AD
S11316000196A11DB11D85839683A783B087CE144F
S1131610DF0459F68091840A8823E1F31092840A46
S1131620C1CF4198662311F0439A15C0439813C063
S1131630AC01022E02C0559547950A94E2F740FF8B
S113164002C0449A01C04498459A459821503109F2
S113165078F7419A089527E030E090E0E9CF60E020
S1131660E0CF0895CF93DF93399A3A9A3B9A3C9A04
S11316703D9A429A419A83EC99E00197F1F700C0B0
S1131680000042988BE594E40197F1F700C0000054
S1131690429A419881E2E3DF83E1E1DF86E0DFDF24
S11316A082ECDDDF80E2DBDF89E0D9DF80E8D7DFB1
S11316B080E4D5DFC8EFD1E061E080E0B2DF2197BC
S11316C0D9F788E0CCDF8CE0CADFDF91CF910895B1
S11316D080E8C5DF80E4C3DF10927D0C10927E0C9D
S11316E0E5E8FAE08DE79CE01192E817F907E1F7E5
S11316F00895262F26952695269590E034E5239F78
S1131700800D911D1124442379F0FC01EB57F54F12
S1131710677081E090E002C0880F991F6A95E2F734
S11317209081892B80830895FC01EB57F54F6770F6
S113173081E090E002C0880F991F6A95E2F78095D6
S113174090818923808308955F926F927F928F9214
S11317509F92AF92BF92CF92DF92EF92FF920F933C
S11317601F93CF93DF93562E262F30E04901880C28
S1131770991C880C991C820E931E181419040CF0E1
S113178059C08901000F111F000F111F000F111FF5
S1131790021B130B612CA82EB12CC50180975C0190
S11317A0AA0CBB1CAA0CBB1CA80EB91E0F2EFEE76C
S11317B0CF2EFCE0DF2EF02D0F2EFDE7EF2EFCE008
S11317C0FF2EF02D2AC0FE01249130E0872D652DD7
S11317D049D202C0359527958A95E2F720FF09C0C2
S11317E0F6016081670DF701808141E0860D81DF9C
S11317F008C0F6016081670DF701808140E0860D25
S113180078DF7394872D90E080179107E4F2639456
S1131810862D90E0881599056CF410161106BCF716
S1131820862D652D1FD2E501C80FD11DC457DF4F8A
S1131830712CC9CF80917D0C91E0980F852D880F74
S1131840880F850D890F843518F480937D0C0EC0A4
S113185010927D0CEEE7FCE0808191E0980F852DDD
S1131860880F880F880F8519890F808380917E0CDB
S1131870803320F010927D0C10927E0CDF91CF917A
S11318801F910F91FF90EF90DF90CF90BF90AF909A
S11318909F908F907F906F905F9008951F93CF9348
S11318A0DF93EC018881882339F0162F2196612F6C
S11318B04BDF89918111FBCFDF91CF911F91089567
S11318C080937D0C60937E0C08950F931F93CF93A8
S11318D0DF9380E8C4DE80E4C2DEC5E8DAE00DE729
S11318E01CE061E089919DDEC017D107D1F7DF913B
S11318F0CF911F910F910895D9D008F481E00895F4
S11319000CD00FC107D140F0FED030F021F45F3F7E
S113191019F0F0C0511139C1F3C014D198F39923CF
S1131920C9F35523B1F3951B550BBB27AA2762179F
S11319307307840738F09F5F5F4F220F331F441FE4
S1131940AA1FA9F333D00E2E3AF0E0E830D091501C
S11319505040E695001CCAF729D0FE2F27D0660F09
S1131960771F881FBB1F261737074807AB07B0E848
S113197009F0BB0B802DBF01FF2793585F4F2AF05E
S11319809E3F510568F0B6C000C15F3FECF3983E3E
S1131990DCF3869577956795B795F7959F5FC9F7BB
S11319A0880F911D9695879597F90895E1E0660F44
S11319B0771F881FBB1F621773078407BA0720F0BD
S11319C0621B730B840BBA0BEE1F88F7E095089526
S11319D004D06894B111D9C00895BCD088F09F5741
S11319E090F0B92F9927B751A0F0D1F0660F771F67
S11319F0881F991F1AF0BA95C9F712C0B13081F047
S1131A00C3D0B1E00895C0C0672F782F8827B85F8E
S1131A1039F0B93FCCF3869577956795B395D9F7A7
S1131A203EF490958095709561957F4F8F4F9F4FB1
S1131A300895E89409C097FB3EF4909580957095BD
S1131A4061957F4F8F4F9F4F9923A9F0F92F96E906
S1131A50BB279395F695879577956795B795F1117B
S1131A60F8CFFAF4BB0F11F460FF1BC06F5F7F4F18
S1131A708F4F9F4F16C0882311F096E911C077232A
S1131A8021F09EE8872F762F05C0662371F096E833
S1131A90862F70E060E02AF09A95660F771F881F02
S1131AA0DAF7880F9695879597F90895990F0008A6
S1131AB0550FAA0BE0E8FEEF16161706E807F9071C
S1131AC0C0F012161306E407F50798F0621B730BB7
S1131AD0840B950B39F40A2661F0232B242B252B38
S1131AE021F408950A2609F4A140A6958FEF811DDB
S1131AF0811D089597F99F6780E870E060E008957C
S1131B009FEF80EC089500240A9416161706180611
S1131B100906089500240A941216130614060506ED
S1131B200895092E0394000C11F4882352F0BB0F7E
S1131B3040F4BF2B11F460FF04C06F5F7F4F8F4FE1
S1131B409F4F089557FD9058440F551F59F05F3F1C
S1131B5071F04795880F97FB991F61F09F3F79F0CB
S1131B6087950895121613061406551FF2CF46954D
S1131B70F1DF08C0161617061806991FF1CF8695CF
S1131B807105610508940895E894BB2766277727B3
S1131B90CB0197F908958ADF08F48FEF08950BD0ED
S1131BA0C0CFB1DF28F0B6DF18F0952309F0A2CF3B
S1131BB0A7CF1124EACFC6DFA0F3959FD1F3950FE9
S1131BC050E0551F629FF001729FBB27F00DB11DBD
S1131BD0639FAA27F00DB11DAA1F649F6627B00D4D
S1131BE0A11D661F829F2227B00DA11D621F739F36
S1131BF0B00DA11D621F839FA00D611D221F749F44
S1131C003327A00D611D231F849F600D211D822F8A
S1131C10762F6A2F11249F5750408AF0E1F08823D1
S1131C204AF0EE0FFF1FBB1F661F771F881F9150DE
S1131C305040A9F79E3F510570F05CCFA6CF5F3F9F
S1131C40ECF3983EDCF3869577956795B795F79511
S1131C50E7959F5FC1F7FE2B880F911D9695879599
S1131C6097F90895991B79E004C0991F961708F015
S1131C70961B881F7A95C9F780950895F894FFCF2D
S1131C8003000000010101010139012D013F013B65
S1131C90012F0141013D01310143014B0133014554
S1131CA0014D01350147014F01370149012308570F
S1131CB0088B08BF08F30827097504FF0489055138
S1131CC001D7015D02E3026903EF031306C3067340
S1131CD007C800C800C800C800C80064000A00643F
S1131CE0000A002C01C800C8000A00C80064000AE9
S1131CF000C80064000A00C80064000A00C800C8E4
S1131D00002C010A000A000A00640064000A00F4BE
S1131D1001C800C800C800C800C80064000A006404
S1131D20000A002C01C800C8000A00C80064000AA8
S1131D3000C80064000A00C80064000A00C800C8A3
S1131D40002C010A000A000A00640064000A002052
S1131D50032C012C01F401C800C800580258025891
S1131D6002C8004B00C8004B005802580258024BEE
S1131D7000C80064004B002C0164004B002C01647B
S1131D80004B002C019001F4014B004B004B004B25
S1131D90002C014B009001C800C80058025802589A
S1131DA002C8004B00C8004B005802580258024BAE
S1131DB000C80064004B002C0164004B002C01643B
S1131DC0004B002C019001F4014B004B004B004BE5
S1131DD0002C014B00900190019001E80349014956
S1131DE0018801ED01880188015D0149015D0188D7
S1131DF0019604DB03A4037003160496041604A4DA
S1131E00031604A4033E03A4033E03100388015DE8
S1131E10018801B8010B029302B801880149015DF0
S1131E20018801ED01880188015D0149015D018896
S1131E30019604DB03A4037003160496041604A499
S1131E40031604A4033E03A4033E03100388015DA8
S1131E50018801B8010B029302B80188019F019F18
S1131E60017201C800C800C800C800C80064000AA4
S1131E700064000A002C01C800C8000A00C80064FD
S1131E80000A00C80064000A00C80064000A00C810
S1131E9000C8002C010A000A000A00640064000A59
S1131EA000F401C800C800C800C800C80064000AE3
S1131EB00064000A002C01C800C8000A00C80064BD
S1131EC0000A00C80064000A00C80064000A00C8D0
S1131ED000C8002C010A000A000A00640064000A19
S1131EE00020032C012C01F401C800C8005802583A
S1131EF0025802C8004B00C8004B00580258025850
S1131F00024B00C80064004B002C0164004B002C01
S1131F100164004B002C019001F4014B004B004B79
S1131F20004B002C014B009001C800C80058025817
S1131F30025802C8004B00C8004B0058025802580F
S1131F40024B00C80064004B002C0164004B002CC1
S1131F500164004B002C019001F4014B004B004B39
S1131F60004B002C014B00900190019001E8038884
S1131F7001B80193021003930293024B020B024B2C
S1131F80029302DB031003E402BA02160496041659
S1131F9004A4031604A4033E03A4033E031003880D
S1131FA001250149015D0188010B02B801880188FE
S1131FB001B80193021003930293024B020B024BEC
S1131FC0029302DB031003E402BA02160496041619
S1131FD004A4031604A4033E03A4033E03100388CD
S1131FE001250149015D0188010B02B801880149FD
S1131FF001490105014F016400DB01A0001900C281
S1132000011D0132005E01C8002602640064000A5A
S11320100064006400C80019001900640064000A28
S113202000640064002C0119006400320096001959
S11320300064003200960064000A00640064000A30
S11320400064005802640064000A0064006400C86C
S11320500019001900640064000A00640064002C84
S113206001190064003200960019006400320096E1
S11320700064000A00640064000A0064002C01CFBC
S1132080032C019600CF032C0196000703FA002CC1
S1132090016B039600C800C8004B0096002C019603
S11320A000640064002C01C8004B0096002C0196CB
S11320B000FA0096004B00FA00FA0096004B00FA72
S11320C00096004B009600C8004B0096009600C88E
S11320D000C8004B0096002C019600640064002C9C
S11320E001C8004B0096002C019600FA0096004BA4
S11320F000FA00FA0096004B00FA0096004B009696
S113210000C8004B0096009600B801ED01ED019F58
S113211001150115017201ED01ED01490115019F40
S1132120019F01B801D201ED019F01490172019F94
S1132130019F01B801D201ED019F0149019F0149AD
S1132140019F0149019F0149019F019F012A02ED5D
S1132150019F019F014901ED019F019F01B801D237
S113216001ED019F01490172019F019F01B801D254
S113217001ED019F0149019F0149019F0149019F0F
S11321800149019F019F012A02ED019F019F01B8AE
S1132190019F010A0019006400640064006400FAED
S11321A0000A001900640064000A0064006400FA74
S11321B0000A001900640064000A006400640064FA
S11321C0000A006400640064000A006400580264A9
S11321D00064000A0064006400C800190019006467
S11321E00064000A00640064002C011900640032D9
S11321F0009600190064003200960064000A00642E
S11322000064000A0064005802640064000A006468
S1132210006400C80019001900640064000A006426
S11322200064002C01190064003200960019006457
S1132230003200960064000A00640064000A00642E
S1132240002C014B0096002C012C0196002C0196C9
S1132250004B0096002C0196004B0096002C019632
S1132260004B0096002C0196004B0096002C019622
S1132270004B0096002C0196004B0096009600C877
S113228000C8004B0096002C019600640064002CEA
S113229001C8004B0096002C019600FA0096004BF2
S11322A000FA00FA0096004B00FA0096004B0096E4
S11322B000C8004B0096009600C800C8004B00966A
S11322C0002C019600640064002C01C8004B0096A9
S11322D0002C019600FA0096004B00FA00FA0096D2
S11322E0004B00FA0096004B009600C8004B009685
S11322F00096002A02ED012A022A02ED01930293BC
S1132300022A02ED012A022A022A02ED0193023E68
S1132310032A02ED012A022A022A02ED0193029302
S1132320029302E4029302930293022A023E0349B7
S1132330014901720188019F014901ED011501491B
S1132340014901720188019F0149011501490115E3
S113235001490115014901150149014901B8019FCC
S1132360014901490115019F01490149017201888F
S1132370019F014901ED01150149014901720188DB
S1132380019F01490115014901150149011501493F
S113239001150149014901B8019F0149014901722F
S11323A00149011900190019001900320032009680
S11323B000320032009600320032009600190019F3
S11323C00019001900190019001900190019001941
S11323D0001900190096002C012C012C012C012C51
S11323E0012C0158022C012C0158022C012C0158FB
S11323F0022C012C012C012C012C012C012C012C70
S1132400012C012C012C012C01E80388015D0149F8
S1132410015D018801880188015D015D015D01881C
S1132420010B020B0288015D0149015D01880188ED
S113243001880188015D015D0188015D014901197F
S113244000190019001900320032009600320032DF
S11324500096003200320096001900190019001984
S113246000190019001900190019001900190019A0
S11324700096002C012C012C012C012C012C01585C
S1132480022C012C0158022C012C0158022C012C85
S1132490012C012C012C012C012C012C012C012CD0
S11324A0012C012C01E803490125010501250149FD
S11324B001490149012501250125014901880188B6
S11324C00149012501050125014901490149014944
S11324D00125012501490125010501010000005FD5
S11324E00A540A490A3E0A536F6E67204E616D65AD
S11324F03A2020202052656E61692020202020206F
S113250020202043697263756C6174696F6E005397
S11325106F6E67204E616D653A202020204D6172F8
S113252079204861642041202020204C6974746C17
S113253065204C616D6200536F6E67204E616D655E
S11325403A202020204D616D616D6F6F203A20206C
S113255020202048656C6C6F00536F6E67205061BB
S113256075736564212020507265737320506C610B
S11325707920746F20526573756D652E0057656CF4
S1132580636F6D6520746F2074686520694272659D
S11325906164426F617264212050726573732050CC
S11325A06C617920746F20426567696E20596F757C
S11125B07220202020204D75736963210000E5
S9030000FC
