:1000000035C1000052C1000050C100004EC10000C7
:100010004CC100004AC1000048C1000046C10000B8
:1000200044C10000B8C1000040C100003EC1000052
:100030003CC100003AC1000038C1000036C10000D8
:1000400034C1000032C1000030C100002EC10000E8
:100050002CC100002AC1000028C1000026C10000F8
:1000600024C1000022C1000020C100001EC1000008
:100070001CC100001AC1000018C1000016C1000018
:1000800014C1000012C1000010C1000000000000F7
:100090000000005F00000007000700147F147F14B9
:1000A000242A7F2A122313086462364955225000FD
:1000B00005030000001C2241000041221C0014081E
:1000C0003E081408083E08080050300000080808E0
:1000D0000808006060000020100804023E514945F5
:1000E0003E00427F400042615149462141454B312B
:1000F0001814127F1027454545393C4A49493001BB
:10010000710905033649494936064949291E003611
:100110003600000056360000081422410014141462
:100120001414004122140802015109063249794190
:100130003E7E1111117E7F494949363E414141229F
:100140007F4141221C7F494949417F090909013EFC
:100150004149497A7F0808087F00417F41002040DB
:10016000413F017F081422417F404040407F020C04
:10017000027F7F0408107F3E4141413E7F0909090B
:10018000063E4151215E7F091929464649494931B8
:1001900001017F01013F4040403F1F2040201F3FA1
:1001A0004038403F63140814630708700807615122
:1001B000494543007F4141000204081020004141AD
:1001C0007F0004020102044040404040000102045C
:1001D0000020545454787F484444383844444420E0
:1001E000384444487F3854545418087E0901020C9E
:1001F0005252523E7F0804047800447D4000204063
:10020000443D007F1028440000417F40007C0418DA
:1002100004787C0804047838444444387C1414146A
:1002200008081414187C7C0804040848545454200A
:10023000043F4440203C4040207C1C2040201C3C8B
:100240004030403C44281028440C5050503C4464FA
:10025000544C44000836410000007F000000413645
:1002600008001008081008000000000011241FBE3C
:10027000CFEFD0E4DEBFCDBF17E0A0E0B1E0E2E019
:10028000F2E200E00BBF02C007900D92A431B1076B
:10029000D9F729E0A4E1B7E001C01D92A037B20769
:1002A000E1F70E94A30C0C94FF10AACE20B121709C
:1002B0008130910559F082309105A1F0892BB9F474
:1002C00081E08093050181E090E00895222389F088
:1002D00081E090910501911180E08093050182E019
:1002E00090E00895211105C081E090E0089580E03C
:1002F00090E0089520B1322F327020B12470813007
:100300009105D1F082309105F9F0009711F5222383
:1003100031F081E080936F0981E090E0089533230C
:1003200031F081E080936E0982E090E008951092B0
:100330006F0910926E09089541E030E0211101C06B
:1003400040E0842F932F0895311105C080E090E0A4
:10035000089580E090E008958BE08093B1008DE7F0
:100360008093B30082E0809370001092B20080917D
:10037000DF069091E006A091E106B091E20680933D
:100380006F0790937007A0937107B09372078FB7B0
:1003900080688FBF08951F920F920FB60F9211249D
:1003A0008F939F93AF93BF9380916F079091700746
:1003B000A0917107B09172070197A109B1098093CB
:1003C0006F0790937007A0937107B0937207892B02
:1003D0008A2B8B2B99F481E0809373078091DF0641
:1003E0009091E006A091E106B091E20680936F073C
:1003F00090937007A0937107B0937207BF91AF916C
:100400009F918F910F900FBE0F901F901895609342
:10041000DF067093E0068093E1069093E206609316
:100420006F07709370078093710790937207089518
:10043000CF92DF92EF92FF926B017C019B01AC01A6
:1004400060916B0770916C0780916D0790916E07BA
:100450000E943D0F882309F456C020E030E0A90136
:10046000C701B6010E943D0F811106C0E1E9F0E02D
:1004700080818870808305C0E1E9F0E0808183603D
:10048000808328E539E344E75FE3C701B6010E94B2
:100490003D0F88233CF48FEF9FEF9093990080935A
:1004A000980025C020E034E244EF56E4C701B601CD
:1004B0000E948C1018162CF410929900109298003B
:1004C00016C020E030E040E053E4C701B6010E94CE
:1004D00090109B01AC0160E074E284EF9AE40E940A
:1004E000410F0E94A90F7093990060939800109299
:1004F000950010929400C0926B07D0926C07E09226
:100500006D07F0926E07FF90EF90DF90CF90089507
:1005100080E4809390008BE08093910060E070E035
:10052000CB0186CF0895CF92DF92EF92FF926B01BD
:100530007C019B01AC016091670770916807809115
:10054000690790916A070E943D0F882309F456C0FD
:1005500020E030E0A901C701B6010E943D0F8111E2
:1005600006C0E1E8F0E080818870808305C0E1E8A2
:10057000F0E080818360808328E539E344E75FE32E
:10058000C701B6010E943D0F88233CF48FEF9FEF17
:10059000909389008093880025C020E034E244EFE6
:1005A00056E4C701B6010E948C1018162CF4109264
:1005B00089001092880016C020E030E040E053E44B
:1005C000C701B6010E9490109B01AC0160E074E28B
:1005D00084EF9AE40E94410F0E94A90F7093890052
:1005E000609388001092850010928400C092670783
:1005F000D0926807E0926907F0926A07FF90EF9047
:10060000DF90CF90089580E4809380008BE080930A
:10061000810060E070E0CB0186CF0895CF92DF9239
:10062000EF92FF926B017C019B01AC01609163072B
:100630007091640780916507909166070E943D0F55
:10064000882309F455C020E030E0A901C701B601B4
:100650000E943D0F811107C085B5887085BD84B5A6
:10066000836084BD03C085B5856085BD20E030E032
:1006700048EF51E4C701B6010E943D0F88231CF4E6
:100680008FEF87BD2CC020E030E244E755E4C7017E
:10069000B6010E948C10181614F417BC20C020E07C
:1006A00030E040E055E4C701B6010E9490109B0184
:1006B000AC0160E074E284EF9AE40E94410F0E9472
:1006C000AE0F70E080E090E00E94DC0F20E030E0B0
:1006D00040E85EE30E94D90E0E94AE0F67BD16BCD3
:1006E000C0926307D0926407E0926507F0926607B4
:1006F000FF90EF90DF90CF90089580E484BD8FE06D
:1007000085BD60E070E0CB0189CF0895BC01990FF1
:10071000880B990B0E94DC0F8BCE089560E070E08F
:10072000CB0186CE08950F931F93CF93DF93823032
:10073000910579F134F4009779F08130910519F140
:10074000EAC28430910509F4A3C10CF4FFC08530DE
:10075000910509F445C2DFC2109262071092610749
:100760001092600710925F0710925E0710925D076B
:1007700081E080935C0710926F0910926E09CEDFC2
:1007800081E090E0C8C220910501222309F4B8C29B
:10079000C2C21092040120910501222339F0BEDF6C
:1007A00082E080935B0785E090E0B5C220916F09FD
:1007B000222369F12091610730916207232BD1F444
:1007C00010926207109261071092600710925F0703
:1007D00010925E0710925D0720915C07211106C000
:1007E00020910001215020935C0795C22150209355
:1007F0005C0791C210926207109261071092600725
:1008000010925F0710925E0710925D0784C22091DC
:100810006E09222329F1109262071092610710924B
:10082000600710925F0710925E0710925D0740917B
:100830005C074F5F40935C0750E060E070E0009120
:100840000001109101012091020130910301401734
:1008500051076207730709F05EC210925C075BC222
:1008600040915C07242F30E0F901EE0FFF1FE75C99
:10087000FE4F60817181C0916107D0916207DE01F6
:10088000AA0FBB1FA60FB71FE0915F07F09160078B
:10089000CF01880F991FED91FC91E80FF91F80811E
:1008A0009181019649F42196D0936207C093610724
:1008B0001092600710925F07809161079091620724
:1008C000F901EA5FFE4F208130E02817390741F532
:1008D00081E08093040110926207109261071092E8
:1008E000600710925F0710925E0710925D07840FF9
:1008F00080935C0790E0A0E0B0E04091000150914F
:100900000101609102017091030184179507A60708
:10091000B70709F0F8C110925C0781E090E0FBC1D5
:10092000880F991FFB01E80FF91F80915F079091D5
:100930006007880F991F0190F081E02DE80FF91FE3
:1009400080819181E3DE83E090E0E5C120910501A3
:10095000222339F0E3DE83E080935B0785E090E0BB
:10096000DAC120916F09222399F18091610790915A
:100970006207892BF1F410926207109261071092BE
:10098000600710925F0710925E0710925D078091DA
:100990005C07811108C080910001815080935C0741
:1009A00082E090E0B8C1815080935C0782E090E0E3
:1009B000B2C1109262071092610710926007109204
:1009C0005F0710925E0710925D0782E090E0A3C17E
:1009D00020916E09222339F110926207109261076B
:1009E0001092600710925F0710925E0710925D07E9
:1009F00080915C078F5F80935C0790E0A0E0B0E09F
:100A00004091000150910101609102017091030138
:100A100084179507A607B70709F078C110925C07FD
:100A200082E090E078C140915D0750915E07E091CF
:100A30005C07F0E0EE0FFF1FED5CFE4FA091610739
:100A4000B09162079D01220F331FA081B181A20FD7
:100A5000B31FE0915F07F09160079F01220F331FE2
:100A6000ED91FC91E20FF31F208131814217530772
:100A700038F44F5F5F4F50935E0740935D074BC163
:100A800010925E0710925D0749DE84E090E043C15A
:100A900020910501222339F041DE84E080935B0739
:100AA00085E090E038C120916F09222399F180916F
:100AB000610790916207892BF1F4109262071092FE
:100AC00061071092600710925F0710925E07109204
:100AD0005D0780915C07811108C080910001815001
:100AE00080935C0782E090E016C1815080935C07A0
:100AF00082E090E010C1109262071092610710929C
:100B0000600710925F0710925E0710925D0782E007
:100B100090E001C120916E09222339F11092620701
:100B2000109261071092600710925F0710925E07A3
:100B300010925D0780915C078F5F80935C0790E067
:100B4000A0E0B0E0409100015091010160910201EC
:100B50007091030184179507A607B70709F0D9C05C
:100B600010925C0782E090E0D6C040915F07509100
:100B7000600760915D0770915E07E0915C07F0E0AF
:100B8000EE0FFF1FE35DFE4F20916107309162077A
:100B9000220F331F0190F081E02DE20FF31F9A0125
:100BA000220F331F0190F081E02DE20FF31F20810F
:100BB00031816217730738F46F5F7F4F70935E0760
:100BC00060935D07A8C010925E0710925D074F5FAB
:100BD0005F4F5093600740935F0782E090E09BC0B7
:100BE00020916F092223A9F18091610790916207FA
:100BF000892BF1F41092620710926107109260073E
:100C000010925F0710925E0710925D0780915C075B
:100C1000811106C080910001815080935C0703C060
:100C2000815080935C071092050182E090E073C0D0
:100C300010926207109261071092600710925F078E
:100C400010925E0710925D071092050182E090E01D
:100C500062C020916E09222341F110926207109226
:100C600061071092600710925F0710925E07109262
:100C70005D0780915C078F5F80935C0790E0A0E048
:100C8000B0E040910001509101016091020170912A
:100C9000030184179507A607B70711F410925C07A4
:100CA0001092050182E090E036C0209105012111EB
:100CB00032C0C0915B07C33001F5E0915C07F0E002
:100CC000EE0FFF1FE75CFE4F809161079091620776
:100CD000880F991F0190F081E02DE80FF91F809196
:100CE0005F0790916007880F991F0190F081E02DB8
:100CF000E80FF91F8081918109DD8C2F90E00BC0F6
:100D000082E090E008C081E090E005C082E090E0E1
:100D100002C082E090E0DF91CF911F910F91089582
:100D2000BC01990F880B990B0E94DC0F77CC0895BA
:100D300060E070E0CB0172CC08950F931F93CF93C6
:100D4000DF938230910579F134F4009779F08130A6
:100D5000910519F1EAC28430910509F4A3C10CF49C
:100D6000FFC08530910509F445C2DFC210925A07D1
:100D70001092590710925807109257071092560771
:100D80001092550781E08093540710926F091092DA
:100D90006E09CEDF81E090E0C8C2209105012223D8
:100DA00009F4B8C2C2C210920401209105012223A5
:100DB00039F0BEDF82E08093530785E090E0B5C252
:100DC00020916F09222369F12091590730915A0728
:100DD000232BD1F410925A071092590710925807FA
:100DE00010925707109256071092550720915407FA
:100DF000211106C02091000121502093540795C273
:100E000021502093540791C210925A07109259070B
:100E100010925807109257071092560710925507D4
:100E200084C220916E09222329F110925A07109250
:100E300059071092580710925707109256071092B0
:100E40005507409154074F5F4093540750E060E0CE
:100E500070E0009100011091010120910201309198
:100E60000301401751076207730709F05EC2109231
:100E700054075BC240915407242F30E0F901EE0F74
:100E8000FF1FE95DFE4F60817181C0915907D091CC
:100E90005A07DE01AA0FBB1FA60FB71FE091570725
:100EA000F0915807CF01880F991FED91FC91E80F41
:100EB000F91F80819181019649F42196D0935A07B8
:100EC000C0935907109258071092570780915907FD
:100ED00090915A07F901EA5FFE4F208130E0281710
:100EE000390741F581E08093040110925A0710926E
:100EF00059071092580710925707109256071092F0
:100F00005507840F8093540790E0A0E0B0E0409133
:100F10000001509101016091020170910301841759
:100F20009507A607B70709F0F8C11092540781E0AA
:100F300090E0FBC1880F991FFB01E80FF91F80911A
:100F4000570790915807880F991F0190F081E02D65
:100F5000E80FF91F80819181E3DE83E090E0E5C135
:100F600020910501222339F0E3DE83E080935307CB
:100F700085E090E0DAC120916F09222399F18091F8
:100F8000590790915A07892BF1F410925A07109241
:100F9000590710925807109257071092560710924F
:100FA000550780915407811108C08091000181503C
:100FB0008093540782E090E0B8C181508093540739
:100FC00082E090E0B2C110925A0710925907109235
:100FD000580710925707109256071092550782E053
:100FE00090E0A3C120916E09222339F110925A0793
:100FF00010925907109258071092570710925607EF
:1010000010925507809154078F5F8093540790E0AA
:10101000A0E0B0E040910001509101016091020117
:101020007091030184179507A607B70709F078C1E7
:101030001092540782E090E078C14091550750919A
:101040005607E0915407F0E0EE0FFF1FEF5DFE4FF3
:10105000A0915907B0915A079D01220F331FA0811B
:10106000B181A20FB31FE0915707F09158079F017C
:10107000220F331FED91FC91E20FF31F208131818C
:101080004217530738F44F5F5F4F50935607409312
:1010900055074BC1109256071092550749DE84E060
:1010A00090E043C120910501222339F041DE84E024
:1010B0008093530785E090E038C120916F09222387
:1010C00099F18091590790915A07892BF1F4109268
:1010D0005A0710925907109258071092570710920A
:1010E00056071092550780915407811108C08091CE
:1010F000000181508093540782E090E016C1815036
:101100008093540782E090E010C110925A07109229
:1011100059071092580710925707109256071092CD
:10112000550782E090E001C120916E09222339F138
:1011300010925A07109259071092580710925707A9
:101140001092560710925507809154078F5F809335
:10115000540790E0A0E0B0E04091000150910101FF
:10116000609102017091030184179507A607B707E4
:1011700009F0D9C01092540782E090E0D6C04091A7
:101180005707509158076091550770915607E091A5
:101190005407F0E0EE0FFF1FE55EFE4F2091590768
:1011A00030915A07220F331F0190F081E02DE20F9A
:1011B000F31F9A01220F331F0190F081E02DE20FFF
:1011C000F31F208131816217730738F46F5F7F4FFF
:1011D0007093560760935507A8C010925607109257
:1011E00055074F5F5F4F509358074093570782E072
:1011F00090E09BC020916F092223A9F180915907AB
:1012000090915A07892BF1F410925A0710925907BE
:1012100010925807109257071092560710925507D0
:1012200080915407811106C0809100018150809304
:10123000540703C08150809354071092050182E047
:1012400090E073C010925A071092590710925807F5
:1012500010925707109256071092550710920501E9
:1012600082E090E062C020916E09222341F1109249
:101270005A07109259071092580710925707109268
:10128000560710925507809154078F5F809354073B
:1012900090E0A0E0B0E04091000150910101609128
:1012A00002017091030184179507A607B70711F48F
:1012B000109254071092050182E090E036C0209110
:1012C0000501211132C0C0915307C33001F5E091EF
:1012D0005407F0E0EE0FFF1FE95DFE4F80915907C4
:1012E00090915A07880F991F0190F081E02DE80F27
:1012F000F91F8091570790915807880F991F019007
:10130000F081E02DE80FF91F8081918109DD8C2F9C
:1013100090E00BC082E090E008C081E090E005C062
:1013200082E090E002C082E090E0DF91CF911F91D7
:101330000F910895BC01990F880B990B3DD6F3C806
:10134000089560E070E0CB01EEC808950F931F93FD
:10135000CF93DF938230910579F134F4009779F0DF
:101360008130910519F1EAC28430910509F4A3C1D5
:101370000CF4FFC08530910509F445C2DFC210921C
:101380005207109251071092500710924F07109277
:101390004E0710924D0781E080934C0710926F0921
:1013A00010926E09CEDF81E090E0C8C22091050165
:1013B000222309F4B8C2C2C210920401209105018F
:1013C000222339F0BEDF82E080934B0785E090E076
:1013D000B5C220916F09222369F120915107309104
:1013E0005207232BD1F410925207109251071092FA
:1013F000500710924F0710924E0710924D07209100
:101400004C07211106C020910001215020934C0768
:1014100095C2215020934C0791C21092520710920E
:1014200051071092500710924F0710924E071092DA
:101430004D0784C220916E09222329F11092520790
:10144000109251071092500710924F0710924E07BA
:1014500010924D0740914C074F5F40934C0750E06E
:1014600060E070E000910001109101012091020103
:1014700030910301401751076207730709F05EC2FC
:1014800010924C075BC240914C07242F30E0F901C9
:10149000EE0FFF1FEB5EFE4F60817181C09151071F
:1014A000D0915207DE01AA0FBB1FA60FB71FE09114
:1014B0004F07F0915007CF01880F991FED91FC91D4
:1014C000E80FF91F80819181019649F42196D0930C
:1014D0005207C09351071092500710924F07809106
:1014E000510790915207F901EA5FFE4F208130E0E9
:1014F0002817390741F581E08093040110925207C3
:10150000109251071092500710924F0710924E07F9
:1015100010924D07840F80934C0790E0A0E0B0E05C
:10152000409100015091010160910201709103010D
:1015300084179507A607B70709F0F8C110924C0762
:1015400081E090E0FBC1880F991FFB01E80FF91FB4
:1015500080914F0790915007880F991F0190F0815B
:10156000E02DE80FF91F80819181E4DE83E090E0B7
:10157000E5C120910501222339F0E3DE83E0809369
:101580004B0785E090E0DAC120916F09222399F1A1
:101590008091510790915207892BF1F410925207D4
:1015A000109251071092500710924F0710924E0759
:1015B00010924D0780914C07811108C08091000165
:1015C000815080934C0782E090E0B8C181508093B5
:1015D0004C0782E090E0B2C110925207109251077E
:1015E0001092500710924F0710924E0710924D071D
:1015F00082E090E0A3C120916E09222339F110927C
:101600005207109251071092500710924F071092F4
:101610004E0710924D0780914C078F5F80934C07C7
:1016200090E0A0E0B0E04091000150910101609194
:1016300002017091030184179507A607B70709F007
:1016400078C110924C0782E090E078C140914D073C
:1016500050914E07E0914C07F0E0EE0FFF1FE15F65
:10166000FE4FA0915107B09152079D01220F331FE9
:10167000A081B181A20FB31FE0914F07F0915007F5
:101680009F01220F331FED91FC91E20FF31F208188
:1016900031814217530738F44F5F5F4F50934E0725
:1016A00040934D074BC110924E0710924D0749DEF3
:1016B00084E090E043C120910501222339F041DE0E
:1016C00084E080934B0785E090E038C120916F095A
:1016D000222399F18091510790915207892BF1F4BF
:1016E00010925207109251071092500710924F0714
:1016F00010924E0710924D0780914C07811108C03F
:1017000080910001815080934C0782E090E016C1E7
:10171000815080934C0782E090E010C110925207F4
:10172000109251071092500710924F0710924E07D7
:1017300010924D0782E090E001C120916E092223B2
:1017400039F11092520710925107109250071092DF
:101750004F0710924E0710924D0780914C078F5FF4
:1017600080934C0790E0A0E0B0E0409100015091E0
:101770000101609102017091030184179507A6078A
:10178000B70709F0D9C010924C0782E090E0D6C0AC
:1017900040914F075091500760914D0770914E074F
:1017A000E0914C07F0E0EE0FFF1FE75FFE4F209146
:1017B000510730915207220F331F0190F081E02D25
:1017C000E20FF31F9A01220F331F0190F081E02DE9
:1017D000E20FF31F208131816217730738F46F5FC6
:1017E0007F4F70934E0760934D07A8C010924E072D
:1017F00010924D074F5F5F4F5093500740934F0734
:1018000082E090E09BC020916F092223A9F1809192
:10181000510790915207892BF1F4109252071092C0
:1018200051071092500710924F0710924E071092D6
:101830004D0780914C07811106C0809100018150B5
:1018400080934C0703C0815080934C071092050190
:1018500082E090E073C010925207109251071092EC
:10186000500710924F0710924E0710924D0710929A
:10187000050182E090E062C020916E09222341F1CF
:1018800010925207109251071092500710924F0772
:1018900010924E0710924D0780914C078F5F8093F6
:1018A0004C0790E0A0E0B0E04091000150910101B0
:1018B000609102017091030184179507A607B7078D
:1018C00011F410924C071092050182E090E036C0AE
:1018D00020910501211132C0C0914B07C33001F5A1
:1018E000E0914C07F0E0EE0FFF1FEB5EFE4F8091A2
:1018F000510790915207880F991F0190F081E02DB8
:10190000E80FF91F80914F0790915007880F991F9A
:101910000190F081E02DE80FF91F808191810ADDAF
:101920008C2F90E00BC082E090E008C081E090E056
:1019300005C082E090E002C082E090E0DF91CF91AC
:101940001F910F910895CF93DF93CDB7DEB72A97FC
:101950000FB6F894DEBF0FBECDBF11B812B88FEF2F
:1019600084B915B887B918B880EF8AB91BB88AE06E
:10197000E3EEF6E0DE01119601900D928A95E1F713
:10198000E0E4F7E0108281E090E0A0E0B0E0818345
:101990009283A383B48385839683A783B08723E947
:1019A00033E032872187E5E3F7E010828183928379
:1019B000A383B48385839683A783B0872DE936E01C
:1019C00032872187EAE2F7E0108281839283A38342
:1019D000B48385839683A783B08726EA39E032876C
:1019E0002187EFE1F7E0108281839283A383B483A0
:1019F00085839683A783B08726E531E032872187E8
:101A0000E4E1F7E0108281839283A383B48385832A
:101A10009683A783B0878AE791E09287818761E008
:101A200070E080E090E00E9407020E94AC0176D056
:101A3000ABD060E070E080E090E09ED161E070E0CB
:101A40008DEE96E087D19DD10E9488020E947D0391
:101A50000E9403037E018BE0E80EF11CDE0111966B
:101A60006D01F601019111916F01D80115964D910B
:101A70005D916D917C91189711968D919D910D902E
:101A8000BC91A02D481759076A077B0781F4F8011C
:101A900080810184F285E02D082E000C990B0995B8
:101AA000D8018C93F8011582168217821086F801EE
:101AB00085819681A781B0850196A11DB11D858381
:101AC0009683A783B087CE14DF0459F680917307FD
:101AD0008823E1F310927307C1CF4198662311F078
:101AE000439A15C0439813C0AC01022E02C055950D
:101AF00047950A94E2F740FF02C0449A01C0449817
:101B0000459A45982150310978F7419A089527E080
:101B100030E090E0E9CF60E0E0CF0895CF93DF932D
:101B2000399A3A9A3B9A3C9A3D9A429A419A83EC66
:101B300099E00197F1F700C0000042988BE594E42A
:101B40000197F1F700C00000429A419881E2E3DF7B
:101B500083E1E1DF86E0DFDF82ECDDDF80E2DBDFF7
:101B600089E0D9DF80E8D7DF80E4D5DFC8EFD1E0B6
:101B700061E080E0B2DF2197D9F788E0CCDF8CE02C
:101B8000CADFDF91CF91089580E8C5DF80E4C3DF2D
:101B900010926C0910926D09E4E7F7E08CE699E089
:101BA0001192E817F907E1F70895262F2695269553
:101BB000269590E034E5239F800D911D1124442348
:101BC00079F0FC01EC58F84F677081E090E002C0BA
:101BD000880F991F6A95E2F79081892B8083089579
:101BE000FC01EC58F84F677081E090E002C0880F6C
:101BF000991F6A95E2F780959081892380830895E3
:101C00005F926F927F928F929F92AF92BF92CF928C
:101C1000DF92EF92FF920F931F93CF93DF93562E95
:101C2000262F30E04901880C991C880C991C820EE3
:101C3000931E181419040CF059C08901000F111FCC
:101C4000000F111F000F111F021B130B612CA82E78
:101C5000B12CC50180975C01AA0CBB1CAA0CBB1C53
:101C6000A80EB91E0F2EFDE6CF2EF9E0DF2EF02DC7
:101C70000F2EFCE6EF2EF9E0FF2EF02D2AC0FE011C
:101C8000249130E0872D652DAED202C03595279581
:101C90008A95E2F720FF09C0F6016081670DF70120
:101CA000808141E0860D81DF08C0F6016081670D0B
:101CB000F701808140E0860D78DF7394872D90E0F6
:101CC00080179107E4F26394862D90E088159905BA
:101CD0006CF410161106BCF7862D652D84D2E50133
:101CE000C80FD11DC457DF4F712CC9CF80916C092B
:101CF00091E0980F852D880F880F850D890F843509
:101D000018F480936C090EC010926C09EDE6F9E0AE
:101D1000808191E0980F852D880F880F880F851995
:101D2000890F808380916D09803320F010926C09B7
:101D300010926D09DF91CF911F910F91FF90EF905D
:101D4000DF90CF90BF90AF909F908F907F906F90DB
:101D50005F9008951F93CF93DF93EC0188818823D0
:101D600039F0162F2196612F4BDF89918111FBCF1E
:101D7000DF91CF911F91089580936C0960936D0955
:101D800008950F931F93CF93DF9380E8C4DE80E420
:101D9000C2DEC4E7D7E00CE619E061E089919DDE80
:101DA000C017D107D1F7DF91CF911F910F910895FF
:101DB0005058BB27AA270ED075C166D130F06BD121
:101DC00020F031F49F3F11F41EF45BC10EF4E09556
:101DD000E7FB51C1E92F77D180F3BA176207730788
:101DE0008407950718F071F49EF58FC10EF4E09505
:101DF0000B2EBA2FA02D0B01B90190010C01CA01C5
:101E0000A0011124FF27591B99F0593F50F4503E6F
:101E100068F11A16F040A22F232F342F4427585F61
:101E2000F3CF469537952795A795F0405395C9F779
:101E30007EF41F16BA0B620B730B840BBAF0915031
:101E4000A1F0FF0FBB1F661F771F881FC2F70EC0D0
:101E5000BA0F621F731F841F48F4879577956795A3
:101E6000B795F7959E3F08F0B3CF9395880F08F08C
:101E70009927EE0F979587950895D9D008F481E0BA
:101E800008950CD00FC107D140F0FED030F021F4FE
:101E90005F3F19F0F0C0511139C1F3C014D198F36C
:101EA0009923C9F35523B1F3951B550BBB27AA27DB
:101EB00062177307840738F09F5F5F4F220F331F4D
:101EC000441FAA1FA9F333D00E2E3AF0E0E830D019
:101ED00091505040E695001CCAF729D0FE2F27D01C
:101EE000660F771F881FBB1F261737074807AB07EA
:101EF000B0E809F0BB0B802DBF01FF2793585F4F5F
:101F00002AF09E3F510568F0B6C000C15F3FECF378
:101F1000983EDCF3869577956795B795F7959F5F23
:101F2000C9F7880F911D9695879597F90895E1E077
:101F3000660F771F881FBB1F621773078407BA07D6
:101F400020F0621B730B840BBA0BEE1F88F7E09531
:101F5000089504D06894B111D9C00895BCD088F018
:101F60009F5790F0B92F9927B751A0F0D1F0660F85
:101F7000771F881F991F1AF0BA95C9F712C0B130A0
:101F800081F0C3D0B1E00895C0C0672F782F8827B3
:101F9000B85F39F0B93FCCF3869577956795B395DF
:101FA000D9F73EF490958095709561957F4F8F4F4E
:101FB0009F4F0895E89409C097FB3EF49095809553
:101FC000709561957F4F8F4F9F4F9923A9F0F92FFF
:101FD00096E9BB279395F695879577956795B7957D
:101FE000F111F8CFFAF4BB0F11F460FF1BC06F5F63
:101FF0007F4F8F4F9F4F16C0882311F096E911C075
:10200000772321F09EE8872F762F05C0662371F095
:1020100096E8862F70E060E02AF09A95660F771FA9
:10202000881FDAF7880F9695879597F90895990F85
:102030000008550FAA0BE0E8FEEF16161706E80792
:10204000F907C0F012161306E407F50798F0621BB3
:10205000730B840B950B39F40A2661F0232B242B88
:10206000252B21F408950A2609F4A140A6958FEFA7
:10207000811D811D089597F99F6780E870E060E0F9
:1020800008959FEF80EC089500240A941616170611
:1020900018060906089500240A9412161306140659
:1020A00005060895092E0394000C11F4882352F0BC
:1020B000BB0F40F4BF2B11F460FF04C06F5F7F4F74
:1020C0008F4F9F4F089557FD9058440F551F59F05B
:1020D0005F3F71F04795880F97FB991F61F09F3F15
:1020E00079F087950895121613061406551FF2CF3E
:1020F0004695F1DF08C0161617061806991FF1CF8E
:1021000086957105610508940895E894BB276627B4
:102110007727CB0197F908958ADF08F48FEF0895A8
:102120000BD0C0CFB1DF28F0B6DF18F0952309F04F
:10213000A2CFA7CF1124EACFC6DFA0F3959FD1F39A
:10214000950F50E0551F629FF001729FBB27F00D65
:10215000B11D639FAA27F00DB11DAA1F649F6627BA
:10216000B00DA11D661F829F2227B00DA11D621F09
:10217000739FB00DA11D621F839FA00D611D221FC3
:10218000749F3327A00D611D231F849F600D211DA7
:10219000822F762F6A2F11249F5750408AF0E1F04A
:1021A00088234AF0EE0FFF1FBB1F661F771F881F93
:1021B00091505040A9F79E3F510570F05CCFA6CFDB
:1021C0005F3FECF3983EDCF3869577956795B7957E
:1021D000F795E7959F5FC1F7FE2B880F911D9695A8
:1021E000879597F90895991B79E004C0991F961770
:1021F00008F0961B881F7A95C9F780950895F89482
:02220000FFCF0E
:1022020003000000010102010151014B013F015392
:10221200014D01410155014F01430157014B013F5E
:102222000159014D0141015B014F01430157014534
:10223200013F015901470141015B01490143010B82
:10224200053F057305A705DB050F0643067706ABB9
:10225200065D01E7017102FB02AB035B044F0164FF
:1022620000DB01A0001900C2011D0132005E01C89D
:10227200002602640064000A0064006400C80019B9
:10228200001900640064000A00640064002C011953
:102292000064003200960019006400320096006467
:1022A200000A00640064000A0064005802640064CA
:1022B200000A0064006400C8001900190064006488
:1022C200000A00640064002C0119006400320096C8
:1022D20000190064003200960064000A0064006481
:1022E200000A0064002C01CF032C019600CF032CBE
:1022F2000196000703FA002C016B039600C800C880
:10230200004B0096002C019600640064002C01C86A
:10231200004B0096002C019600FA0096004B00FA42
:1023220000FA0096004B00FA0096004B009600C897
:10233200004B0096009600C800C8004B0096002C87
:10234200019600640064002C01C8004B0096002C2A
:10235200019600FA0096004B00FA00FA0096004B34
:1023620000FA0096004B009600C8004B00960096BB
:1023720000B801ED01ED019F01150115017201ED9A
:1023820001ED01490115019F019F01B801D201ED43
:10239200019F01490172019F019F01B801D201ED24
:1023A200019F0149019F0149019F0149019F014983
:1023B200019F019F012A02ED019F019F014901ED49
:1023C200019F019F01B801D201ED019F01490172F4
:1023D200019F019F01B801D201ED019F0149019FB7
:1023E2000149019F0149019F0149019F019F012A62
:1023F20002ED019F019F01B8019F010A00190064CB
:1024020000640064006400FA000A001900640064B9
:10241200000A0064006400FA000A00190064006403
:10242200000A006400640064000A0064006400643E
:10243200000A0064005802640064000A0064006438
:1024420000C80019001900640064000A00640064F6
:10245200002C011900640032009600190064003259
:1024620000960064000A00640064000A00640058D8
:1024720002640064000A0064006400C800190019C4
:1024820000640064000A00640064002C0119006406
:102492000032009600190064003200960064000ABF
:1024A20000640064000A0064002C014B0096002CBA
:1024B200012C0196002C0196004B0096002C0196EF
:1024C200004B0096002C0196004B0096002C0196C2
:1024D200004B0096002C0196004B0096002C0196B2
:1024E200004B0096009600C800C8004B0096002CD6
:1024F200019600640064002C01C8004B0096002C79
:10250200019600FA0096004B00FA00FA0096004B82
:1025120000FA0096004B009600C8004B0096009609
:1025220000C800C8004B0096002C019600640064AD
:10253200002C01C8004B0096002C019600FA009670
:10254200004B00FA00FA0096004B00FA0096004B8E
:10255200009600C8004B00960096002A02ED012A60
:10256200022A02ED01930293022A02ED012A022AB3
:10257200022A02ED0193023E032A02ED012A022AF7
:10258200022A02ED01930293029302E40293029360
:102592000293022A023E0349014901720188019F06
:1025A200014901ED01150149014901720188019FAB
:1025B2000149011501490115014901150149011599
:1025C2000149014901B8019F014901490115019FD2
:1025D2000149014901720188019F014901ED01157B
:1025E2000149014901720188019F0149011501490F
:1025F200011501490115014901150149014901B8B6
:10260200019F01490149017201490119001900198B
:102612000019003200320096003200320096003279
:10262200003200960019001900190019001900194A
:102632000019001900190019001900190096002C40
:10264200012C012C012C012C012C0158022C012CF3
:102652000158022C012C0158022C012C012C012CB6
:10266200012C012C012C012C012C012C012C012C00
:1026720001E8030501F600DC00F60005010501058D
:1026820001F600F600F6000501490149010501F6CF
:1026920000DC00F6000501050105010501F600F662
:1026A200000501DC00C400190019001900190032EC
:1026B200003200960032003200960032003200965C
:1026C2000019001900190019001900190019001940
:1026D20000190019001900190096002C012C012C78
:1026E200012C012C012C0158022C012C0158022C26
:1026F200012C0158022C012C012C012C012C012C43
:10270200012C012C012C012C012C012C01E8038845
:10271200015D0149015D018801880188015D015D5A
:10272200015D0188010B020B0288015D0149015D17
:102732000188018801880188015D015D0188015DD0
:1027420001490119001900190019003200320096DE
:102752000032003200960032003200960019001951
:10276200001900190019001900190019001900199F
:10277200001900190096002C012C012C012C012CAF
:10278200012C0158022C012C0158022C012C015859
:10279200022C012C012C012C012C012C012C012CCE
:1027A200012C012C012C012C01E803490125010512
:1027B2000125014901490149012501250125014957
:1027C20001880188014901250105012501490149C5
:1027D200014901490125012501490125010501019F
:1027E200000000400735072A071F0714074A455310
:1027F2005553204C4F5645532020202020594F55E9
:102802002020202020202020204A4F484E20333AEA
:04281200313600005B
:00000001FF
