:1000000035C1000052C1000050C100004EC10000C7
:100010004CC100004AC1000048C1000046C10000B8
:1000200044C10000BCC1000040C100003EC100004E
:100030003CC100003AC1000038C1000036C10000D8
:1000400034C1000032C1000030C100002EC10000E8
:100050002CC100002AC1000028C1000026C10000F8
:1000600024C1000022C1000020C100001EC1000008
:100070001CC100001AC1000018C1000016C1000018
:1000800014C1000012C1000010C1000000000000F7
:100090000000005F00000007000700147F147F14B9
:1000A000242A7F2A122313086462364955225000FD
:1000B00005030000001C2241000041221C0014081E
:1000C0003E081408083E08080050300000080808E0
:1000D0000808006060000020100804023E514945F5
:1000E0003E00427F400042615149462141454B312B
:1000F0001814127F1027454545393C4A49493001BB
:10010000710905033649494936064949291E003611
:100110003600000056360000081422410014141462
:100120001414004122140802015109063249794190
:100130003E7E1111117E7F494949363E414141229F
:100140007F4141221C7F494949417F090909013EFC
:100150004149497A7F0808087F00417F41002040DB
:10016000413F017F081422417F404040407F020C04
:10017000027F7F0408107F3E4141413E7F0909090B
:10018000063E4151215E7F091929464649494931B8
:1001900001017F01013F4040403F1F2040201F3FA1
:1001A0004038403F63140814630708700807615122
:1001B000494543007F4141000204081020004141AD
:1001C0007F0004020102044040404040000102045C
:1001D0000020545454787F484444383844444420E0
:1001E000384444487F3854545418087E0901020C9E
:1001F0005252523E7F0804047800447D4000204063
:10020000443D007F1028440000417F40007C0418DA
:1002100004787C0804047838444444387C1414146A
:1002200008081414187C7C0804040848545454200A
:10023000043F4440203C4040207C1C2040201C3C8B
:100240004030403C44281028440C5050503C4464FA
:10025000544C44000836410000007F000000413645
:1002600008001008081008000000000011241FBE3C
:10027000CFEFD0E4DEBFCDBF1AE0A0E0B1E0E6E909
:10028000FCE100E00BBF02C007900D92A23CB10759
:10029000D9F72DE0A2ECBAE001C01D92A730B20759
:1002A000E1F70E946F0A0C94490EAACE20B121708A
:1002B0008130910559F082309105A1F0892BB9F474
:1002C00081E08093080181E090E00895222389F085
:1002D00081E090910801911180E08093080182E013
:1002E00090E00895211105C081E090E0089580E03C
:1002F00090E0089520B1322F327020B12470813007
:100300009105F1F08230910519F1009731F5222322
:1003100041F081E08093060D1092030D81E090E0A2
:100320000895332341F081E08093030D1092060D70
:1003300082E090E008951092060D1092030D08954A
:1003400041E030E0211101C040E0842F932F089557
:10035000311105C080E090E0089580E090E00895BC
:100360008BE08093B1008DE78093B30082E08093AF
:1003700070001092B2008091EB099091EC09A0916D
:10038000ED09B091EE098093040B9093050BA093B7
:10039000060BB093070B8FB780688FBF08951F922D
:1003A0000F920FB60F9211248F939F93AF93BF9329
:1003B0008091040B9091050BA091060BB091070B57
:1003C0000197A109B1098093040B9093050BA093A9
:1003D000060BB093070B892B8A2B8B2B99F481E0AA
:1003E0008093080B8091EB099091EC09A091ED09A5
:1003F000B091EE098093040B9093050BA093060B2C
:10040000B093070BBF91AF919F918F910F900FBE4B
:100410000F901F9018956093EB097093EC098093EF
:10042000ED099093EE096093040B7093050B809394
:10043000060B9093070B0895CF92DF92EF92FF92F5
:100440006B017C019B01AC016091000B7091010B71
:100450008091020B9091030B0E94870C882309F472
:1004600056C020E030E0A901C701B6010E94870C08
:10047000811106C0E1E9F0E080818870808305C0C9
:10048000E1E9F0E080818360808328E539E344E797
:100490005FE3C701B6010E94870C88233CF48FEF0D
:1004A0009FEF909399008093980025C020E034E25C
:1004B00044EF56E4C701B6010E94D60D18162CF47D
:1004C000109299001092980016C020E030E040E0B1
:1004D00053E4C701B6010E94DA0D9B01AC0160E054
:1004E00074E284EF9AE40E948B0C0E94F30C7093E8
:1004F0009900609398001092950010929400C09219
:10050000000BD092010BE092020BF092030BFF90D4
:10051000EF90DF90CF90089580E4809390008BE07F
:100520008093910060E070E0CB0186CF0895CF9278
:10053000DF92EF92FF926B017C019B01AC01609115
:10054000FC0A7091FD0A8091FE0A9091FF0A0E94B8
:10055000870C882309F456C020E030E0A901C701C8
:10056000B6010E94870C811106C0E1E8F0E08081AD
:100570008870808305C0E1E8F0E08081836080833B
:1005800028E539E344E75FE3C701B6010E94870C21
:1005900088233CF48FEF9FEF90938900809388002D
:1005A00025C020E034E244EF56E4C701B6010E94C2
:1005B000D60D18162CF4109289001092880016C0DF
:1005C00020E030E040E053E4C701B6010E94DA0DBC
:1005D0009B01AC0160E074E284EF9AE40E948B0C12
:1005E0000E94F30C7093890060938800109285003C
:1005F00010928400C092FC0AD092FD0AE092FE0A9A
:10060000F092FF0AFF90EF90DF90CF90089580E482
:10061000809380008BE08093810060E070E0CB01EC
:1006200086CF0895BC01990F880B990B0E94260D67
:1006300003CF089560E070E0CB01FECE0895BC01C9
:10064000990F880B990B0E94260D71CF089560E0D9
:1006500070E0CB016CCF08950E94730B60E070E0F6
:1006600080E090E00E946B0C61E070E087EF99E021
:100670000E94590C0C94700C08950E94730B60E05A
:1006800070E080E090E00E946B0C61E070E08FE130
:100690009AE00E94590C0C94700C08950E94730B00
:1006A00060E070E080E090E00E946B0C61E070E040
:1006B0008BE39AE00E94590C0C94700C08950E94F0
:1006C000730B60E070E080E090E00E946B0C61E0F2
:1006D00070E08DE59AE00E94590C0C94700C08951E
:1006E0000F931F93CF93DF93EC018230910569F153
:1006F0002CF4009769F0019711F16DC384309105D6
:1007000009F4DBC10CF436C1059709F47FC263C359
:100710001092FB0A1092FA0A1092F90A1092F80A43
:100720001092F70A1092F60A81E08093050D10925C
:10073000060D1092030D7EDFC1E0D0E04CC3809126
:100740000801882309F43CC346C310920701809135
:100750000801882341F06EDFB2DF82E08093F50A62
:10076000C5E0D0E038C38091060D882369F18091FF
:10077000FA0A9091FB0A892BD1F41092FB0A10928D
:10078000FA0A1092F90A1092F80A1092F70A1092D7
:10079000F60A8091050D811106C0809103018150F8
:1007A0008093050D18C381508093050D14C31092DA
:1007B000FB0A1092FA0A1092F90A1092F80A1092A3
:1007C000F70A1092F60A07C38091030D882329F1D6
:1007D0001092FB0A1092FA0A1092F90A1092F80A83
:1007E0001092F70A1092F60A8091050D8F5F8093A0
:1007F000050D90E0A0E0B0E04091030150910401AC
:10080000609105017091060184179507A607B70747
:1008100009F0E1C21092050DDEC26091050D262F90
:1008200030E0F901EE0FFF1FE95DFE4F408151817D
:100830000091FA0A1091FB0AD801AA0FBB1FA40F5E
:10084000B51FE091F80AF091F90ACF01880F991FBE
:10085000ED91FC91E80FF91F80819181019651F48F
:100860000F5F1F4F1093FB0A0093FA0A1092F90AC8
:100870001092F80A8091FA0A9091FB0AF901E0506F
:10088000FF4F208130E02817390741F581E0809340
:1008900007011092FB0A1092FA0A1092F90A1092BC
:1008A000F80A1092F70A1092F60A860F8093050D47
:1008B00090E0A0E0B0E0409103015091040160910C
:1008C00005017091060184179507A607B70709F07F
:1008D0007AC21092050DC1E0D0E07DC2611117C04F
:1008E000880F991FFA01E80FF91F8091F80A90917B
:1008F000F90A880F991F0190F081E02DE80FF91F88
:10090000808191818FDEA8DEC3E0D0E064C26130D7
:10091000B9F4880F991FFA01E80FF91F8091F80ABE
:100920009091F90A880F991F0190F081E02DE80F4E
:10093000F91F8081918176DEA0DEC3E0D0E04BC25A
:10094000623009F048C2880F991FFA01E80FF91FB9
:100950008091F80A9091F90A880F991F0190F0810F
:10096000E02DE80FF91F808191815CDE97DEC3E006
:10097000D0E031C280910801882341F05BDE9FDE28
:1009800083E08093F50AC5E0D0E025C28091060D92
:10099000882399F18091FA0A9091FB0A892BF1F44E
:1009A0001092FB0A1092FA0A1092F90A1092F80AB1
:1009B0001092F70A1092F60A8091050D811108C075
:1009C0008091030181508093050DC2E0D0E003C205
:1009D00081508093050DC2E0D0E0FDC11092FB0A6A
:1009E0001092FA0A1092F90A1092F80A1092F70A75
:1009F0001092F60AC2E0D0E0EEC18091030D882388
:100A000039F11092FB0A1092FA0A1092F90A109228
:100A1000F80A1092F70A1092F60A8091050D8F5F7E
:100A20008093050D90E0A0E0B0E04091030150916B
:100A30000401609105017091060184179507A607CE
:100A4000B70709F0C3C11092050DC2E0D0E0C3C1E1
:100A50002091F60A3091F70AE091050DF0E0EE0FD3
:100A6000FF1FEF5DFE4FA091FA0AB091FB0ACD0186
:100A7000880F991FA081B181A80FB91FE091F80AD2
:100A8000F091F90ACF01880F991FED91FC91E80FC1
:100A9000F91F808191812817390738F42F5F3F4F64
:100AA0003093F70A2093F60A96C11092F70A109233
:100AB000F60AC0DDC4E0D0E08EC180910801882331
:100AC00041F0FDDDB7DD84E08093F50AC5E0D0E0BC
:100AD00082C18091060D882399F18091FA0A909144
:100AE000FB0A892BF1F41092FB0A1092FA0A109279
:100AF000F90A1092F80A1092F70A1092F60A8091F9
:100B0000050D811108C08091030181508093050D6E
:100B1000C2E0D0E060C181508093050DC2E0D0E01A
:100B20005AC11092FB0A1092FA0A1092F90A109216
:100B3000F80A1092F70A1092F60AC2E0D0E04BC110
:100B40008091030D882339F11092FB0A1092FA0A62
:100B50001092F90A1092F80A1092F70A1092F60A07
:100B60008091050D8F5F8093050D90E0A0E0B0E0CF
:100B700040910301509104016091050170910601BB
:100B800084179507A607B70709F023C11092050D32
:100B9000C2E0D0E020C12091F80A3091F90A4091DA
:100BA000F60A5091F70AE091050DF0E0EE0FFF1FF5
:100BB000E55EFE4F8091FA0A9091FB0A880F991F1B
:100BC0000190F081E02DE80FF91FC901880F991FEE
:100BD0000190F081E02DE80FF91F80819181481785
:100BE000590738F44F5F5F4F5093F70A4093F60A66
:100BF000F2C01092F70A1092F60A2F5F3F4F30931F
:100C0000F90A2093F80AC2E0D0E0E5C08091060D11
:100C10008823A9F18091FA0A9091FB0A892BF1F4BB
:100C20001092FB0A1092FA0A1092F90A1092F80A2E
:100C30001092F70A1092F60A8091050D811106C0F4
:100C40008091030181508093050D03C081508093F2
:100C5000050D10920801C2E0D0E0BDC01092FB0A61
:100C60001092FA0A1092F90A1092F80A1092F70AF2
:100C70001092F60A10920801C2E0D0E0ACC0809158
:100C8000030D882341F11092FB0A1092FA0A109288
:100C9000F90A1092F80A1092F70A1092F60A809157
:100CA000050D8F5F8093050D90E0A0E0B0E04091CE
:100CB00003015091040160910501709106018417B0
:100CC0009507A607B70711F41092050D10920801B9
:100CD000C2E0D0E080C080910801882311F0EFDCF1
:100CE0007AC08091F50A833009F066C08091050DC5
:100CF000811102C0B1DC08C0813011F4BEDC04C037
:100D0000823009F059C0CADC8091050D81111BC0E9
:100D10008091FA0A9091FB0A880F991FE0912701B0
:100D2000F0912801E80FF91F8091F80A9091F90AD3
:100D3000880F991F0190F081E02DE80FF91F808145
:100D4000918170DC39C08130D9F48091FA0A909198
:100D5000FB0A880F991FE0912901F0912A01E80F01
:100D6000F91F8091F80A9091F90A880F991F019054
:100D7000F081E02DE80FF91F8081918153DC1CC0C8
:100D80008230D1F48091FA0A9091FB0A880F991F62
:100D9000E0912B01F0912C01E80FF91F8091F80AE6
:100DA0009091F90A880F991F0190F081E02DE80FCA
:100DB000F91F8081918136DCC091F50AD0E00BC02B
:100DC000C2E0D0E008C0C1E0D0E005C0C2E0D0E0A1
:100DD00002C0C2E0D0E0CE01DF91CF911F910F9110
:100DE00008950F931F93CF93DF93EC018230910509
:100DF00069F12CF4009769F0019711F15DC384301B
:100E0000910509F4DBC10CF436C1059709F47FC2E2
:100E100053C31092F40A1092F30A1092F20A10923D
:100E2000F10A1092F00A1092EF0A81E08093040D0B
:100E30001092060D1092030D0ADCC1E0D0E03CC315
:100E400080910801882309F42CC336C3109207014E
:100E500080910801882341F0FADB31DC82E0809345
:100E6000EE0AC5E0D0E028C38091060D882369F121
:100E70008091F30A9091F40A892BD1F41092F40A2C
:100E80001092F30A1092F20A1092F10A1092F00AEC
:100E90001092EF0A8091040D811106C08091030128
:100EA00081508093040D08C381508093040D04C3C6
:100EB0001092F40A1092F30A1092F20A1092F10AB8
:100EC0001092F00A1092EF0AF7C28091030D882366
:100ED00029F11092F40A1092F30A1092F20A109279
:100EE000F10A1092F00A1092EF0A8091040D8F5FC0
:100EF0008093040D90E0A0E0B0E040910301509198
:100F00000401609105017091060184179507A607F9
:100F1000B70709F0D1C21092040DCEC26091040D42
:100F2000262F30E0F901EE0FFF1FEB5EFE4F4081F0
:100F300051810091F30A1091F40AD801AA0FBB1F46
:100F4000A40FB51FE091F10AF091F20ACF01880FCA
:100F5000991FED91FC91E80FF91F80819181019615
:100F600051F40F5F1F4F1093F40A0093F30A10928D
:100F7000F20A1092F10A8091F30A9091F40AF901B1
:100F8000E050FF4F208130E02817390741F581E01C
:100F9000809307011092F40A1092F30A1092F20A59
:100FA0001092F10A1092F00A1092EF0A860F8093C5
:100FB000040D90E0A0E0B0E04091030150910401E5
:100FC000609105017091060184179507A607B70780
:100FD00009F06AC21092040DC1E0D0E06DC2611147
:100FE00017C0880F991FFA01E80FF91F8091F10AC5
:100FF0009091F20A880F991F0190F081E02DE80F7F
:10100000F91F808191811BDB27DBC3E0D0E054C254
:101010006130B9F4880F991FFA01E80FF91F809128
:10102000F10A9091F20A880F991F0190F081E02D4A
:10103000E80FF91F8081918102DB1FDBC3E0D0E064
:101040003BC2623009F038C2880F991FFA01E80FDD
:10105000F91F8091F10A9091F20A880F991F01906F
:10106000F081E02DE80FF91F80819181E8DA16DB2D
:10107000C3E0D0E021C280910801882341F0E7DA83
:101080001EDB83E08093EE0AC5E0D0E015C28091BC
:10109000060D882399F18091F30A9091F40A892B27
:1010A000F1F41092F40A1092F30A1092F20A1092DC
:1010B000F10A1092F00A1092EF0A8091040D81114A
:1010C00008C08091030181508093040DC2E0D0E0FC
:1010D000F3C181508093040DC2E0D0E0EDC11092C5
:1010E000F40A1092F30A1092F20A1092F10A109286
:1010F000F00A1092EF0AC2E0D0E0DEC18091030D49
:10110000882339F11092F40A1092F30A1092F20A2D
:101110001092F10A1092F00A1092EF0A8091040DD9
:101120008F5F8093040D90E0A0E0B0E04091030158
:101130005091040160910501709106018417950793
:10114000A607B70709F0B3C11092040DC2E0D0E0C2
:10115000B3C12091EF0A3091F00AE091040DF0E064
:10116000EE0FFF1FE15FFE4FA091F30AB091F40A6A
:10117000CD01880F991FA081B181A80FB91FE091FF
:10118000F10AF091F20ACF01880F991FED91FC91BD
:10119000E80FF91F808191812817390738F42F5FF4
:1011A0003F4F3093F00A2093EF0A86C11092F00A65
:1011B0001092EF0A4CDAC4E0D0E07EC180910801C1
:1011C000882341F044DA7BDA84E08093EE0AC5E0BC
:1011D000D0E072C18091060D882399F18091F30AC5
:1011E0009091F40A892BF1F41092F40A1092F30A08
:1011F0001092F20A1092F10A1092F00A1092EF0A7D
:101200008091040D811108C0809103018150809369
:10121000040DC2E0D0E050C181508093040DC2E0C3
:10122000D0E04AC11092F40A1092F30A1092F20A26
:101230001092F10A1092F00A1092EF0AC2E0D0E088
:101240003BC18091030D882339F11092F40A10926A
:10125000F30A1092F20A1092F10A1092F00A109218
:10126000EF0A8091040D8F5F8093040D90E0A0E061
:10127000B0E040910301509104016091050170912B
:10128000060184179507A607B70709F013C1109246
:10129000040DC2E0D0E010C12091F10A3091F20AB1
:1012A0004091EF0A5091F00AE091040DF0E0EE0F4A
:1012B000FF1FE75FFE4F8091F30A9091F40A880FB9
:1012C000991F0190F081E02DE80FF91FC901880FE7
:1012D000991F0190F081E02DE80FF91F8081918125
:1012E0004817590738F44F5F5F4F5093F00A409307
:1012F000EF0AE2C01092F00A1092EF0A2F5F3F4F00
:101300003093F20A2093F10AC2E0D0E0D5C0809178
:10131000060D8823A9F18091F30A9091F40A892B94
:10132000F1F41092F40A1092F30A1092F20A109259
:10133000F10A1092F00A1092EF0A8091040D8111C7
:1013400006C08091030181508093040D03C0815039
:101350008093040D10920801C2E0D0E0ADC010925D
:10136000F40A1092F30A1092F20A1092F10A109203
:10137000F00A1092EF0A10920801C2E0D0E09CC07F
:101380008091030D882341F11092F40A1092F30A20
:101390001092F20A1092F10A1092F00A1092EF0ADB
:1013A0008091040D8F5F8093040D90E0A0E0B0E089
:1013B0004091030150910401609105017091060173
:1013C00084179507A607B70711F41092040D109221
:1013D0000801C2E0D0E070C080910801882311F0BC
:1013E0006ED96AC0C091EE0AC33009F058C080912E
:1013F000040D81111BC08091F30A9091F40A880FAB
:10140000991FE0911501F0911601E80FF91F8091E5
:10141000F10A9091F20A880F991F0190F081E02D56
:10142000E80FF91F808191810AD939C08130D9F440
:101430008091F30A9091F40A880F991FE0911701A7
:10144000F0911801E80FF91F8091F10A9091F20ACA
:10145000880F991F0190F081E02DE80FF91F80811E
:101460009181EDD81CC08230D1F48091F30A909123
:10147000F40A880F991FE0911901F0911A01E80F01
:10148000F91F8091F10A9091F20A880F991F01903B
:10149000F081E02DE80FF91F80819181D0D8D0E054
:1014A0000BC0C2E0D0E008C0C1E0D0E005C0C2E09F
:1014B000D0E002C0C2E0D0E0CE01DF91CF911F9119
:1014C0000F91089510D160E070E080E090E003D2C9
:1014D00061E070E081E89AE0ECD102C20895CF9318
:1014E000DF93CDB7DEB728970FB6F894DEBF0FBEF7
:1014F000CDBF11B812B88FEF84B915B887B918B835
:1015000080EF8AB91BB888E0EFEEF9E0DE011196B2
:1015100001900D928A95E1F7E3EEFAE0108281E006
:1015200090E0A0E0B0E081839283A383B4838583BD
:101530009683A783B08726E531E032872187E8EDDF
:10154000FAE0108281839283A383B4838583968398
:10155000A783B0872AE731E032872187EDECFAE0F4
:10156000108281839283A383B48385839683A78328
:10157000B08720E733E032872187E2ECFAE010827F
:1015800081839283A383B48385839683A783B08763
:1015900081EF96E09287818761E070E080E090E0E3
:1015A0000E940B020E94B00168D08CDF0E948C0266
:1015B0002ED87E0189E0E80EF11CDE0111966D0146
:1015C000F601019111916F01D80115964D915D9130
:1015D0006D917C91189711968D919D910D90BC9174
:1015E000A02D481759076A077B0781F4F80180810D
:1015F0000184F285E02D082E000C990B0995D80185
:101600008C93F8011582168217821086F801858165
:101610009681A781B0850196A11DB11D8583968312
:10162000A783B087CE14DF0459F68091080B882376
:10163000E1F31092080BC1CF4198662311F0439A51
:1016400015C0439813C0AC01022E02C055954795B2
:101650000A94E2F740FF02C0449A01C04498459AB8
:1016600045982150310978F7419A089527E030E0F4
:1016700090E0E9CF60E0E0CF0895CF93DF93399A0F
:101680003A9A3B9A3C9A3D9A429A419A83EC99E065
:101690000197F1F700C0000042988BE594E40197B0
:1016A000F1F700C00000429A419881E2E3DF83E154
:1016B000E1DF86E0DFDF82ECDDDF80E2DBDF89E097
:1016C000D9DF80E8D7DF80E4D5DFC8EFD1E061E083
:1016D00080E0B2DF2197D9F788E0CCDF8CE0CADF69
:1016E000DF91CF91089580E8C5DF80E4C3DF1092D9
:1016F000010D1092020DE9E0FBE081E09DE0119206
:10170000E817F907E1F70895262F269526952695DF
:1017100090E034E5239F800D911D1124442379F03E
:10172000FC01E75FF44F677081E090E002C0880F32
:10173000991F6A95E2F79081892B80830895FC01B7
:10174000E75FF44F677081E090E002C0880F991F57
:101750006A95E2F7809590818923808308955F924E
:101760006F927F928F929F92AF92BF92CF92DF92B1
:10177000EF92FF920F931F93CF93DF93562E262F56
:1017800030E04901880C991C880C991C820E931E2C
:10179000181419040CF059C08901000F111F000F13
:1017A000111F000F111F021B130B612CA82EB12C4F
:1017B000C50180975C01AA0CBB1CAA0CBB1CA80E1F
:1017C000B91E0F2EF2E0CF2EFDE0DF2EF02D0F2EF2
:1017D000F1E0EF2EFDE0FF2EF02D2AC0FE01249156
:1017E00030E0872D652D49D202C0359527958A9521
:1017F000E2F720FF09C0F6016081670DF7018081E3
:1018000041E0860D81DF08C0F6016081670DF701B8
:10181000808140E0860D78DF7394872D90E08017FB
:101820009107E4F26394862D90E0881599056CF495
:1018300010161106BCF7862D652D1FD2E501C80FC5
:10184000D11DC457DF4F712CC9CF8091010D91E09C
:10185000980F852D880F880F850D890F843518F412
:101860008093010D0EC01092010DE2E0FDE0808139
:1018700091E0980F852D880F880F880F8519890FA3
:1018800080838091020D803320F01092010D109220
:10189000020DDF91CF911F910F91FF90EF90DF909C
:1018A000CF90BF90AF909F908F907F906F905F9000
:1018B00008951F93CF93DF93EC018881882339F03B
:1018C000162F2196612F4BDF89918111FBCFDF917C
:1018D000CF911F9108958093010D6093020D08959B
:1018E0000F931F93CF93DF9380E8C4DE80E4C2DEC2
:1018F000C9E0DBE001E01DE061E089919DDEC017F9
:10190000D107D1F7DF91CF911F910F910895D9D0D1
:1019100008F481E008950CD00FC107D140F0FED04B
:1019200030F021F45F3F19F0F0C0511139C1F3C01C
:1019300014D198F39923C9F35523B1F3951B550B93
:10194000BB27AA2762177307840738F09F5F5F4F92
:10195000220F331F441FAA1FA9F333D00E2E3AF0D3
:10196000E0E830D091505040E695001CCAF729D0ED
:10197000FE2F27D0660F771F881FBB1F261737073C
:101980004807AB07B0E809F0BB0B802DBF01FF276C
:1019900093585F4F2AF09E3F510568F0B6C000C1D2
:1019A0005F3FECF3983EDCF3869577956795B795A6
:1019B000F7959F5FC9F7880F911D9695879597F9C1
:1019C0000895E1E0660F771F881FBB1F621773073A
:1019D0008407BA0720F0621B730B840BBA0BEE1F4F
:1019E00088F7E095089504D06894B111D9C008959E
:1019F000BCD088F09F5790F0B92F9927B751A0F02D
:101A0000D1F0660F771F881F991F1AF0BA95C9F792
:101A100012C0B13081F0C3D0B1E00895C0C0672FCB
:101A2000782F8827B85F39F0B93FCCF38695779542
:101A30006795B395D9F73EF490958095709561952B
:101A40007F4F8F4F9F4F0895E89409C097FB3EF456
:101A500090958095709561957F4F8F4F9F4F9923FB
:101A6000A9F0F92F96E9BB279395F6958795779579
:101A70006795B795F111F8CFFAF4BB0F11F460FF39
:101A80001BC06F5F7F4F8F4F9F4F16C0882311F091
:101A900096E911C0772321F09EE8872F762F05C0A5
:101AA000662371F096E8862F70E060E02AF09A9540
:101AB000660F771F881FDAF7880F9695879597F935
:101AC0000895990F0008550FAA0BE0E8FEEF1616CF
:101AD0001706E807F907C0F012161306E407F50722
:101AE00098F0621B730B840B950B39F40A2661F096
:101AF000232B242B252B21F408950A2609F4A14039
:101B0000A6958FEF811D811D089597F99F6780E845
:101B100070E060E008959FEF80EC089500240A943F
:101B20001616170618060906089500240A941216B8
:101B30001306140605060895092E0394000C11F4EB
:101B4000882352F0BB0F40F4BF2B11F460FF04C098
:101B50006F5F7F4F8F4F9F4F089557FD9058440FF1
:101B6000551F59F05F3F71F04795880F97FB991FFC
:101B700061F09F3F79F087950895121613061406B9
:101B8000551FF2CF4695F1DF08C016161706180646
:101B9000991FF1CF86957105610508940895E89421
:101BA000BB2766277727CB0197F908958ADF08F4CA
:101BB0008FEF08950BD0C0CFB1DF28F0B6DF18F05B
:101BC000952309F0A2CFA7CF1124EACFC6DFA0F357
:101BD000959FD1F3950F50E0551F629FF001729FC2
:101BE000BB27F00DB11D639FAA27F00DB11DAA1FE1
:101BF000649F6627B00DA11D661F829F2227B00D2E
:101C0000A11D621F739FB00DA11D621F839FA00DB8
:101C1000611D221F749F3327A00D611D231F849F08
:101C2000600D211D822F762F6A2F11249F5750405F
:101C30008AF0E1F088234AF0EE0FFF1FBB1F661FFA
:101C4000771F881F91505040A9F79E3F510570F0B3
:101C50005CCFA6CF5F3FECF3983EDCF3869577959B
:101C60006795B795F795E7959F5FC1F7FE2B880FAE
:101C7000911D9695879597F90895991B79E004C071
:101C8000991F961708F0961B881F7A95C9F78095BB
:061C90000895F894FFCF57
:101C96000101010300000001012D013F0133012F65
:101CA60001410135013101430137014B014501393C
:101CB600014D0147013B014F0149013D017504FFFB
:101CC6000489055101D7015D02E3026903EF03238D
:101CD600086F08BB08070953099F091306C3067353
:101CE60007C800C800C800C800C80064000A00642D
:101CF600000A002C01C800C8000A00C80064000AD7
:101D060000C80064000A00C80064000A00C800C8D1
:101D1600002C010A000A000A00640064000A00F4AC
:101D260001C800C800C800C800C80064000A0064F2
:101D3600000A002C01C800C8000A00C80064000A96
:101D460000C80064000A00C80064000A00C800C891
:101D5600002C010A000A000A00640064000A002040
:101D6600032C012C01F401C800C80058025802587F
:101D760002C8004B00C8004B005802580258024BDC
:101D860000C80064004B002C0164004B002C016469
:101D9600004B002C019001F4014B004B004B004B13
:101DA600002C014B009001C800C800580258025888
:101DB60002C8004B00C8004B005802580258024B9C
:101DC60000C80064004B002C0164004B002C016429
:101DD600004B002C019001F4014B004B004B004BD3
:101DE600002C014B00900190019001D00749014958
:101DF600018801ED01880188015D0149015D0188C5
:101E0600019604DB03A4037003160496041604A4C7
:101E1600031604A4033E03A4033E03100388015DD6
:101E2600018801B8010B029302B801880149015DDE
:101E3600018801ED01880188015D0149015D018884
:101E4600019604DB03A4037003160496041604A487
:101E5600031604A4033E03A4033E03100388015D96
:101E6600018801B8010B029302B80188019F019F06
:101E7600017201C800C800C800C800C80064000A92
:101E86000064000A002C01C800C8000A00C80064EB
:101E9600000A00C80064000A00C80064000A00C8FE
:101EA60000C8002C010A000A000A00640064000A47
:101EB60000F401C800C800C800C800C80064000AD1
:101EC6000064000A002C01C800C8000A00C80064AB
:101ED600000A00C80064000A00C80064000A00C8BE
:101EE60000C8002C010A000A000A00640064000A07
:101EF6000020032C012C01F401C800C80058025828
:101F0600025802C8004B00C8004B0058025802583D
:101F1600024B00C80064004B002C0164004B002CEF
:101F26000164004B002C019001F4014B004B004B67
:101F3600004B002C014B009001C800C80058025805
:101F4600025802C8004B00C8004B005802580258FD
:101F5600024B00C80064004B002C0164004B002CAF
:101F66000164004B002C019001F4014B004B004B27
:101F7600004B002C014B00900190019001D0078886
:101F860001B80193021003930293024B020B024B1A
:101F9600029302DB031003E402BA02160496041647
:101FA60004A4031604A4033E03A4033E03100388FB
:101FB60001250149015D0188010B02B801880188EC
:101FC60001B80193021003930293024B020B024BDA
:101FD600029302DB031003E402BA02160496041607
:101FE60004A4031604A4033E03A4033E03100388BB
:101FF60001250149015D0188010B02B801880149EB
:1020060001490105014F016400DB01A0001900C26E
:10201600011D0132005E01C8002102640064000A4D
:102026000064006400C80019001900640064000A16
:1020360000640064002C0119006400320096001947
:102046000064003200960064000A00640064000A1E
:102056000064005802640064000A0064006400C85A
:102066000019001900640064000A00640064002C72
:1020760001190064003200960019006400320096CF
:102086000064000A00640064000A0064002C01CFAA
:10209600032C019600CF032C0196000703FA002CAF
:1020A600016B039600C800C8004B0096002C0196F1
:1020B60000640064002C01C8004B0096002C0196B9
:1020C60000FA0096004B00FA00FA0096004B00FA60
:1020D6000096004B009600C8004B0096009600C87C
:1020E60000C8004B0096002C019600640064002C8A
:1020F60001C8004B0096002C019600FA0096004B92
:1021060000FA00FA0096004B00FA0096004B009683
:1021160000C8004B0096009600B801ED01ED019F46
:1021260001150115017201ED01ED01490115019F2E
:10213600019F01B801D201ED019F01490172019F82
:10214600019F01B801D201ED019F0149019F01499B
:10215600019F0149019F0149019F019F012A02ED4B
:10216600019F019F014901ED019F019F01B801D225
:1021760001ED019F01490172019F019F01B801D242
:1021860001ED019F0149019F0149019F0149019FFD
:102196000149019F019F012A02ED019F019F01B89C
:1021A600019F010A0019006400640064006400FADB
:1021B600000A001900640064000A0064006400FA62
:1021C600000A001900640064000A006400640064E8
:1021D600000A006400640064000A00640058026497
:1021E6000064000A0064006400C800190019006455
:1021F6000064000A00640064002C011900640032C7
:10220600009600190064003200960064000A00641B
:102216000064000A0064005802640064000A006456
:10222600006400C80019001900640064000A006414
:102236000064002C01190064003200960019006445
:10224600003200960064000A00640064000A00641C
:10225600002C014B0096002C012C0196002C0196B7
:10226600004B0096002C0196004B0096002C019620
:10227600004B0096002C0196004B0096002C019610
:10228600004B0096002C0196004B0096009600C865
:1022960000C8004B0096002C019600640064002CD8
:1022A60001C8004B0096002C019600FA0096004BE0
:1022B60000FA00FA0096004B00FA0096004B0096D2
:1022C60000C8004B0096009600C800C8004B009658
:1022D600002C019600640064002C01C8004B009697
:1022E600002C019600FA0096004B00FA00FA0096C0
:1022F600004B00FA0096004B009600C8004B009673
:102306000096002A02ED012A022A02ED01930293A9
:10231600022A02ED012A022A022A02ED0193023E56
:10232600032A02ED012A022A022A02ED01930293F0
:10233600029302E4029302930293022A023E0349A5
:10234600014901720188019F014901ED0115014909
:10235600014901720188019F0149011501490115D1
:1023660001490115014901150149014901B8019FBA
:10237600014901490115019F01490149017201887D
:10238600019F014901ED01150149014901720188C9
:10239600019F01490115014901150149011501492D
:1023A60001150149014901B8019F0149014901721D
:1023B600014901C8002C014B0005000A00C800C8ED
:1023C600002C01C8002C01C8002C014B0005000A96
:1023D60000C80032000A002C0132000A00C8004B77
:1023E6000005000A00C800C8002C0164009001C85E
:1023F600002C014B0005000A002C01C800F401F472
:102406000158022C014B004B00BC02900158025EA1
:10241600015802F40158022C014B004B00BC022C5F
:10242600012C0120032C012C0158022C014B004BDE
:1024360000BC02F401F4012C01BC02F40158022C88
:10244600014B004B00BC022602D007D2014B02BA58
:10245600026E024B02BA026E024B020B02D201D28C
:10246600014B02BA026E024B02BA026E0270037090
:1024760003BA02A403A403BA026E024B02BA026EA6
:10248600024B020B02D201D2014B02BA026E024B80
:1024960002BA026E024B02C8002C014B0005000A6C
:1024A60000C800C8002C01C8002C01C8002C014B34
:1024B6000005000A00C80032000A002C0132000A9A
:1024C60000C8004B0005000A00C800C8002C0164C3
:1024D600009001C8002C014B0005000A002C01C821
:1024E60000F401F40158022C014B004B00BC029091
:1024F6000158025E015802F40158022C014B004BB0
:1025060000BC022C012C0120032C012C0158022CAA
:10251600014B004B00BC02F401F4012C01BC02F497
:102526000158022C014B004B00BC022602D0075D6D
:1025360001D2014B020B02D2014B020B02D20188DF
:10254600015D015D01D2014B020B02D2014B020B70
:1025560002BA02BA024B02BA02BA024B020B02D20A
:10256600014B020B02D20188015D015D01D2014BD4
:10257600020B02D2014B020B02D20101000000E362
:102586000AD80ACD0AC20A536F6E67204E616D657E
:102596003A2020202052656E6169202020202020CC
:1025A60020202043697263756C6174696F6E0053F5
:1025B6006F6E67204E616D653A20202020416D6167
:1025C6007A696E6720477261636500536F6E672094
:1025D6004E616D653A202020204D616D616D6F6FF3
:1025E600203A202020202048656C6C6F00536F6EC7
:1025F600672050617573656421202050726573737E
:1026060020506C617920746F20526573756D652E4C
:102616000057656C636F6D6520746F207468652064
:10262600694272656164426F61726421205072650D
:10263600737320506C617920746F20426567696EF0
:1026460020596F757220202020204D7573696321F3
:02265600000082
:00000001FF
